{
  "_format": "hh-sol-artifact-1",
  "contractName": "Pool",
  "sourceName": "contracts/Pool/Pool.sol",
  "abi": [
    {
      "anonymous": false,
      "inputs": [
        {
          "indexed": false,
          "internalType": "uint256",
          "name": "amount",
          "type": "uint256"
        }
      ],
      "name": "AmountBorrowed",
      "type": "event"
    },
    {
      "anonymous": false,
      "inputs": [
        {
          "indexed": true,
          "internalType": "address",
          "name": "owner",
          "type": "address"
        },
        {
          "indexed": true,
          "internalType": "address",
          "name": "spender",
          "type": "address"
        },
        {
          "indexed": false,
          "internalType": "uint256",
          "name": "value",
          "type": "uint256"
        }
      ],
      "name": "Approval",
      "type": "event"
    },
    {
      "anonymous": false,
      "inputs": [
        {
          "indexed": true,
          "internalType": "address",
          "name": "borrower",
          "type": "address"
        },
        {
          "indexed": false,
          "internalType": "uint256",
          "name": "amount",
          "type": "uint256"
        },
        {
          "indexed": false,
          "internalType": "uint256",
          "name": "sharesReceived",
          "type": "uint256"
        }
      ],
      "name": "CollateralAdded",
      "type": "event"
    },
    {
      "anonymous": false,
      "inputs": [
        {
          "indexed": true,
          "internalType": "address",
          "name": "borrower",
          "type": "address"
        },
        {
          "indexed": false,
          "internalType": "uint256",
          "name": "amount",
          "type": "uint256"
        }
      ],
      "name": "CollateralWithdrawn",
      "type": "event"
    },
    {
      "anonymous": false,
      "inputs": [
        {
          "indexed": true,
          "internalType": "address",
          "name": "liquidator",
          "type": "address"
        },
        {
          "indexed": true,
          "internalType": "address",
          "name": "lender",
          "type": "address"
        },
        {
          "indexed": false,
          "internalType": "uint256",
          "name": "_tokenReceived",
          "type": "uint256"
        }
      ],
      "name": "LenderLiquidated",
      "type": "event"
    },
    {
      "anonymous": false,
      "inputs": [
        {
          "indexed": false,
          "internalType": "uint256",
          "name": "amountSupplied",
          "type": "uint256"
        },
        {
          "indexed": true,
          "internalType": "address",
          "name": "lenderAddress",
          "type": "address"
        }
      ],
      "name": "LiquiditySupplied",
      "type": "event"
    },
    {
      "anonymous": false,
      "inputs": [
        {
          "indexed": false,
          "internalType": "uint256",
          "name": "amount",
          "type": "uint256"
        },
        {
          "indexed": true,
          "internalType": "address",
          "name": "lenderAddress",
          "type": "address"
        }
      ],
      "name": "LiquidityWithdrawn",
      "type": "event"
    },
    {
      "anonymous": false,
      "inputs": [
        {
          "indexed": true,
          "internalType": "address",
          "name": "borrower",
          "type": "address"
        },
        {
          "indexed": true,
          "internalType": "address",
          "name": "lender",
          "type": "address"
        },
        {
          "indexed": false,
          "internalType": "uint256",
          "name": "amount",
          "type": "uint256"
        },
        {
          "indexed": false,
          "internalType": "uint256",
          "name": "sharesReceived",
          "type": "uint256"
        }
      ],
      "name": "MarginCallCollateralAdded",
      "type": "event"
    },
    {
      "anonymous": false,
      "inputs": [
        {
          "indexed": true,
          "internalType": "address",
          "name": "lenderAddress",
          "type": "address"
        }
      ],
      "name": "MarginCalled",
      "type": "event"
    },
    {
      "anonymous": false,
      "inputs": [
        {
          "indexed": false,
          "internalType": "address",
          "name": "account",
          "type": "address"
        }
      ],
      "name": "Paused",
      "type": "event"
    },
    {
      "anonymous": false,
      "inputs": [],
      "name": "PoolCancelled",
      "type": "event"
    },
    {
      "anonymous": false,
      "inputs": [],
      "name": "PoolClosed",
      "type": "event"
    },
    {
      "anonymous": false,
      "inputs": [
        {
          "indexed": true,
          "internalType": "address",
          "name": "liquidator",
          "type": "address"
        }
      ],
      "name": "PoolLiquidated",
      "type": "event"
    },
    {
      "anonymous": false,
      "inputs": [],
      "name": "PoolTerminated",
      "type": "event"
    },
    {
      "anonymous": false,
      "inputs": [
        {
          "indexed": true,
          "internalType": "address",
          "name": "from",
          "type": "address"
        },
        {
          "indexed": true,
          "internalType": "address",
          "name": "to",
          "type": "address"
        },
        {
          "indexed": false,
          "internalType": "uint256",
          "name": "value",
          "type": "uint256"
        }
      ],
      "name": "Transfer",
      "type": "event"
    },
    {
      "anonymous": false,
      "inputs": [
        {
          "indexed": false,
          "internalType": "address",
          "name": "account",
          "type": "address"
        }
      ],
      "name": "Unpaused",
      "type": "event"
    },
    {
      "inputs": [
        {
          "internalType": "address",
          "name": "_lender",
          "type": "address"
        },
        {
          "internalType": "uint256",
          "name": "_amount",
          "type": "uint256"
        },
        {
          "internalType": "bool",
          "name": "_transferFromSavingsAccount",
          "type": "bool"
        }
      ],
      "name": "addCollateralInMarginCall",
      "outputs": [],
      "stateMutability": "payable",
      "type": "function"
    },
    {
      "inputs": [
        {
          "internalType": "address",
          "name": "owner",
          "type": "address"
        },
        {
          "internalType": "address",
          "name": "spender",
          "type": "address"
        }
      ],
      "name": "allowance",
      "outputs": [
        {
          "internalType": "uint256",
          "name": "",
          "type": "uint256"
        }
      ],
      "stateMutability": "view",
      "type": "function"
    },
    {
      "inputs": [
        {
          "internalType": "address",
          "name": "spender",
          "type": "address"
        },
        {
          "internalType": "uint256",
          "name": "amount",
          "type": "uint256"
        }
      ],
      "name": "approve",
      "outputs": [
        {
          "internalType": "bool",
          "name": "",
          "type": "bool"
        }
      ],
      "stateMutability": "nonpayable",
      "type": "function"
    },
    {
      "inputs": [
        {
          "internalType": "address",
          "name": "account",
          "type": "address"
        }
      ],
      "name": "balanceOf",
      "outputs": [
        {
          "internalType": "uint256",
          "name": "",
          "type": "uint256"
        }
      ],
      "stateMutability": "view",
      "type": "function"
    },
    {
      "inputs": [],
      "name": "borrower",
      "outputs": [
        {
          "internalType": "address",
          "name": "",
          "type": "address"
        }
      ],
      "stateMutability": "view",
      "type": "function"
    },
    {
      "inputs": [
        {
          "internalType": "uint256",
          "name": "_balance",
          "type": "uint256"
        },
        {
          "internalType": "uint256",
          "name": "_liquidityShares",
          "type": "uint256"
        }
      ],
      "name": "calculateCollateralRatio",
      "outputs": [
        {
          "internalType": "uint256",
          "name": "_ratio",
          "type": "uint256"
        }
      ],
      "stateMutability": "nonpayable",
      "type": "function"
    },
    {
      "inputs": [],
      "name": "calculateCurrentPeriod",
      "outputs": [
        {
          "internalType": "uint256",
          "name": "",
          "type": "uint256"
        }
      ],
      "stateMutability": "view",
      "type": "function"
    },
    {
      "inputs": [
        {
          "internalType": "address",
          "name": "_lender",
          "type": "address"
        }
      ],
      "name": "calculateRepaymentWithdrawable",
      "outputs": [
        {
          "internalType": "uint256",
          "name": "",
          "type": "uint256"
        }
      ],
      "stateMutability": "view",
      "type": "function"
    },
    {
      "inputs": [],
      "name": "cancelPool",
      "outputs": [],
      "stateMutability": "nonpayable",
      "type": "function"
    },
    {
      "inputs": [],
      "name": "closeLoan",
      "outputs": [],
      "stateMutability": "payable",
      "type": "function"
    },
    {
      "inputs": [
        {
          "internalType": "uint256",
          "name": "_totalCollateralTokens",
          "type": "uint256"
        },
        {
          "internalType": "address",
          "name": "_priceOracle",
          "type": "address"
        },
        {
          "internalType": "uint256",
          "name": "_fraction",
          "type": "uint256"
        }
      ],
      "name": "correspondingBorrowTokens",
      "outputs": [
        {
          "internalType": "uint256",
          "name": "",
          "type": "uint256"
        }
      ],
      "stateMutability": "view",
      "type": "function"
    },
    {
      "inputs": [],
      "name": "decimals",
      "outputs": [
        {
          "internalType": "uint8",
          "name": "",
          "type": "uint8"
        }
      ],
      "stateMutability": "view",
      "type": "function"
    },
    {
      "inputs": [
        {
          "internalType": "address",
          "name": "spender",
          "type": "address"
        },
        {
          "internalType": "uint256",
          "name": "subtractedValue",
          "type": "uint256"
        }
      ],
      "name": "decreaseAllowance",
      "outputs": [
        {
          "internalType": "bool",
          "name": "",
          "type": "bool"
        }
      ],
      "stateMutability": "nonpayable",
      "type": "function"
    },
    {
      "inputs": [
        {
          "internalType": "uint256",
          "name": "_amount",
          "type": "uint256"
        },
        {
          "internalType": "bool",
          "name": "_transferFromSavingsAccount",
          "type": "bool"
        }
      ],
      "name": "depositCollateral",
      "outputs": [],
      "stateMutability": "payable",
      "type": "function"
    },
    {
      "inputs": [
        {
          "internalType": "address",
          "name": "_lender",
          "type": "address"
        }
      ],
      "name": "getBalanceDetails",
      "outputs": [
        {
          "internalType": "uint256",
          "name": "",
          "type": "uint256"
        },
        {
          "internalType": "uint256",
          "name": "",
          "type": "uint256"
        }
      ],
      "stateMutability": "view",
      "type": "function"
    },
    {
      "inputs": [
        {
          "internalType": "address",
          "name": "_lender",
          "type": "address"
        }
      ],
      "name": "getCurrentCollateralRatio",
      "outputs": [
        {
          "internalType": "uint256",
          "name": "_ratio",
          "type": "uint256"
        }
      ],
      "stateMutability": "nonpayable",
      "type": "function"
    },
    {
      "inputs": [],
      "name": "getCurrentCollateralRatio",
      "outputs": [
        {
          "internalType": "uint256",
          "name": "_ratio",
          "type": "uint256"
        }
      ],
      "stateMutability": "nonpayable",
      "type": "function"
    },
    {
      "inputs": [
        {
          "internalType": "address",
          "name": "_source",
          "type": "address"
        },
        {
          "internalType": "address",
          "name": "_target",
          "type": "address"
        },
        {
          "internalType": "uint256",
          "name": "_amount",
          "type": "uint256"
        }
      ],
      "name": "getEquivalentTokens",
      "outputs": [
        {
          "internalType": "uint256",
          "name": "",
          "type": "uint256"
        }
      ],
      "stateMutability": "view",
      "type": "function"
    },
    {
      "inputs": [],
      "name": "getLoanStatus",
      "outputs": [
        {
          "internalType": "uint256",
          "name": "",
          "type": "uint256"
        }
      ],
      "stateMutability": "view",
      "type": "function"
    },
    {
      "inputs": [
        {
          "internalType": "address",
          "name": "_lender",
          "type": "address"
        }
      ],
      "name": "getMarginCallEndTime",
      "outputs": [
        {
          "internalType": "uint256",
          "name": "",
          "type": "uint256"
        }
      ],
      "stateMutability": "view",
      "type": "function"
    },
    {
      "inputs": [
        {
          "internalType": "address",
          "name": "spender",
          "type": "address"
        },
        {
          "internalType": "uint256",
          "name": "addedValue",
          "type": "uint256"
        }
      ],
      "name": "increaseAllowance",
      "outputs": [
        {
          "internalType": "bool",
          "name": "",
          "type": "bool"
        }
      ],
      "stateMutability": "nonpayable",
      "type": "function"
    },
    {
      "inputs": [
        {
          "internalType": "uint256",
          "name": "_borrowAmountRequested",
          "type": "uint256"
        },
        {
          "internalType": "uint256",
          "name": "_borrowRate",
          "type": "uint256"
        },
        {
          "internalType": "address",
          "name": "_borrower",
          "type": "address"
        },
        {
          "internalType": "address",
          "name": "_borrowAsset",
          "type": "address"
        },
        {
          "internalType": "address",
          "name": "_collateralAsset",
          "type": "address"
        },
        {
          "internalType": "uint256",
          "name": "_idealCollateralRatio",
          "type": "uint256"
        },
        {
          "internalType": "uint256",
          "name": "_repaymentInterval",
          "type": "uint256"
        },
        {
          "internalType": "uint256",
          "name": "_noOfRepaymentIntervals",
          "type": "uint256"
        },
        {
          "internalType": "address",
          "name": "_poolSavingsStrategy",
          "type": "address"
        },
        {
          "internalType": "uint256",
          "name": "_collateralAmount",
          "type": "uint256"
        },
        {
          "internalType": "bool",
          "name": "_transferFromSavingsAccount",
          "type": "bool"
        },
        {
          "internalType": "address",
          "name": "_lenderVerifier",
          "type": "address"
        },
        {
          "internalType": "uint256",
          "name": "_loanWithdrawalDuration",
          "type": "uint256"
        },
        {
          "internalType": "uint256",
          "name": "_collectionPeriod",
          "type": "uint256"
        }
      ],
      "name": "initialize",
      "outputs": [],
      "stateMutability": "payable",
      "type": "function"
    },
    {
      "inputs": [
        {
          "internalType": "uint256",
          "name": "_balance",
          "type": "uint256"
        }
      ],
      "name": "interestPerPeriod",
      "outputs": [
        {
          "internalType": "uint256",
          "name": "",
          "type": "uint256"
        }
      ],
      "stateMutability": "view",
      "type": "function"
    },
    {
      "inputs": [
        {
          "internalType": "uint256",
          "name": "_principal",
          "type": "uint256"
        }
      ],
      "name": "interestPerSecond",
      "outputs": [
        {
          "internalType": "uint256",
          "name": "",
          "type": "uint256"
        }
      ],
      "stateMutability": "view",
      "type": "function"
    },
    {
      "inputs": [],
      "name": "interestToPay",
      "outputs": [
        {
          "internalType": "uint256",
          "name": "",
          "type": "uint256"
        }
      ],
      "stateMutability": "view",
      "type": "function"
    },
    {
      "inputs": [
        {
          "internalType": "address",
          "name": "_lender",
          "type": "address"
        },
        {
          "internalType": "uint256",
          "name": "_amount",
          "type": "uint256"
        },
        {
          "internalType": "bool",
          "name": "_fromSavingsAccount",
          "type": "bool"
        }
      ],
      "name": "lend",
      "outputs": [],
      "stateMutability": "payable",
      "type": "function"
    },
    {
      "inputs": [
        {
          "internalType": "address",
          "name": "",
          "type": "address"
        }
      ],
      "name": "lenders",
      "outputs": [
        {
          "internalType": "uint256",
          "name": "interestWithdrawn",
          "type": "uint256"
        },
        {
          "internalType": "uint256",
          "name": "marginCallEndTime",
          "type": "uint256"
        },
        {
          "internalType": "uint256",
          "name": "extraLiquidityShares",
          "type": "uint256"
        }
      ],
      "stateMutability": "view",
      "type": "function"
    },
    {
      "inputs": [
        {
          "internalType": "bool",
          "name": "_toSavingsAccount",
          "type": "bool"
        },
        {
          "internalType": "bool",
          "name": "_receiveLiquidityShare",
          "type": "bool"
        }
      ],
      "name": "liquidateCancelPenalty",
      "outputs": [],
      "stateMutability": "nonpayable",
      "type": "function"
    },
    {
      "inputs": [
        {
          "internalType": "address",
          "name": "_lender",
          "type": "address"
        },
        {
          "internalType": "bool",
          "name": "_fromSavingsAccount",
          "type": "bool"
        },
        {
          "internalType": "bool",
          "name": "_toSavingsAccount",
          "type": "bool"
        },
        {
          "internalType": "bool",
          "name": "_recieveLiquidityShare",
          "type": "bool"
        }
      ],
      "name": "liquidateForLender",
      "outputs": [],
      "stateMutability": "payable",
      "type": "function"
    },
    {
      "inputs": [
        {
          "internalType": "bool",
          "name": "_fromSavingsAccount",
          "type": "bool"
        },
        {
          "internalType": "bool",
          "name": "_toSavingsAccount",
          "type": "bool"
        },
        {
          "internalType": "bool",
          "name": "_recieveLiquidityShare",
          "type": "bool"
        }
      ],
      "name": "liquidatePool",
      "outputs": [],
      "stateMutability": "payable",
      "type": "function"
    },
    {
      "inputs": [],
      "name": "name",
      "outputs": [
        {
          "internalType": "string",
          "name": "",
          "type": "string"
        }
      ],
      "stateMutability": "view",
      "type": "function"
    },
    {
      "inputs": [],
      "name": "paused",
      "outputs": [
        {
          "internalType": "bool",
          "name": "",
          "type": "bool"
        }
      ],
      "stateMutability": "view",
      "type": "function"
    },
    {
      "inputs": [],
      "name": "poolConstants",
      "outputs": [
        {
          "internalType": "address",
          "name": "borrower",
          "type": "address"
        },
        {
          "internalType": "uint256",
          "name": "borrowAmountRequested",
          "type": "uint256"
        },
        {
          "internalType": "uint256",
          "name": "loanStartTime",
          "type": "uint256"
        },
        {
          "internalType": "uint256",
          "name": "loanWithdrawalDeadline",
          "type": "uint256"
        },
        {
          "internalType": "address",
          "name": "borrowAsset",
          "type": "address"
        },
        {
          "internalType": "uint256",
          "name": "idealCollateralRatio",
          "type": "uint256"
        },
        {
          "internalType": "uint256",
          "name": "borrowRate",
          "type": "uint256"
        },
        {
          "internalType": "uint256",
          "name": "noOfRepaymentIntervals",
          "type": "uint256"
        },
        {
          "internalType": "uint256",
          "name": "repaymentInterval",
          "type": "uint256"
        },
        {
          "internalType": "address",
          "name": "collateralAsset",
          "type": "address"
        },
        {
          "internalType": "address",
          "name": "poolSavingsStrategy",
          "type": "address"
        },
        {
          "internalType": "address",
          "name": "lenderVerifier",
          "type": "address"
        }
      ],
      "stateMutability": "view",
      "type": "function"
    },
    {
      "inputs": [],
      "name": "poolVariables",
      "outputs": [
        {
          "internalType": "uint256",
          "name": "baseLiquidityShares",
          "type": "uint256"
        },
        {
          "internalType": "uint256",
          "name": "extraLiquidityShares",
          "type": "uint256"
        },
        {
          "internalType": "enum Pool.LoanStatus",
          "name": "loanStatus",
          "type": "uint8"
        },
        {
          "internalType": "uint256",
          "name": "penaltyLiquidityAmount",
          "type": "uint256"
        }
      ],
      "stateMutability": "view",
      "type": "function"
    },
    {
      "inputs": [],
      "name": "requestMarginCall",
      "outputs": [],
      "stateMutability": "nonpayable",
      "type": "function"
    },
    {
      "inputs": [],
      "name": "symbol",
      "outputs": [
        {
          "internalType": "string",
          "name": "",
          "type": "string"
        }
      ],
      "stateMutability": "view",
      "type": "function"
    },
    {
      "inputs": [],
      "name": "terminatePool",
      "outputs": [],
      "stateMutability": "nonpayable",
      "type": "function"
    },
    {
      "inputs": [],
      "name": "totalSupply",
      "outputs": [
        {
          "internalType": "uint256",
          "name": "",
          "type": "uint256"
        }
      ],
      "stateMutability": "view",
      "type": "function"
    },
    {
      "inputs": [
        {
          "internalType": "address",
          "name": "recipient",
          "type": "address"
        },
        {
          "internalType": "uint256",
          "name": "amount",
          "type": "uint256"
        }
      ],
      "name": "transfer",
      "outputs": [
        {
          "internalType": "bool",
          "name": "",
          "type": "bool"
        }
      ],
      "stateMutability": "nonpayable",
      "type": "function"
    },
    {
      "inputs": [
        {
          "internalType": "address",
          "name": "sender",
          "type": "address"
        },
        {
          "internalType": "address",
          "name": "recipient",
          "type": "address"
        },
        {
          "internalType": "uint256",
          "name": "amount",
          "type": "uint256"
        }
      ],
      "name": "transferFrom",
      "outputs": [
        {
          "internalType": "bool",
          "name": "",
          "type": "bool"
        }
      ],
      "stateMutability": "nonpayable",
      "type": "function"
    },
    {
      "inputs": [],
      "name": "withdrawBorrowedAmount",
      "outputs": [],
      "stateMutability": "nonpayable",
      "type": "function"
    },
    {
      "inputs": [],
      "name": "withdrawLiquidity",
      "outputs": [],
      "stateMutability": "nonpayable",
      "type": "function"
    },
    {
      "inputs": [],
      "name": "withdrawRepayment",
      "outputs": [],
      "stateMutability": "nonpayable",
      "type": "function"
    },
    {
      "stateMutability": "payable",
      "type": "receive"
    }
  ],
  "bytecode": "0x608060405234801561001057600080fd5b50600160c9556158cd80620000266000396000f3fe6080604052600436106102605760003560e01c80637320fc2911610144578063b2c09233116100b6578063c94db32c1161007a578063c94db32c146109e4578063d2b93bfd14610a18578063d820d4c914610a3d578063daf5539e14610a67578063dd62ed3e14610a9a578063e70d72d714610ad557610267565b8063b2c09233146108de578063bda9e06b1461092a578063bde5ef321461093f578063c145fe691461097d578063c4a3702f146109b157610267565b80637ea382c1116101085780637ea382c11461081857806395d89b411461082d57806395f3f45614610842578063a457c2d714610857578063a9059cbb14610890578063acc1ab13146108c957610267565b80637320fc29146107255780637489b451146107585780637729886f1461076d5780637aa9f4a71461079c5780637df1f1b9146107e757610267565b80632dea6214116101dd5780635695d52d116101a15780635695d52d146105c05780635afaa80f146105d55780635c975abb146106185780636886c8141461062d57806370a08231146106b357806372954480146106e657610267565b80632dea6214146104e3578063313ce567146105175780633950935114610542578063455712761461057b57806346b55fbb1461059057610267565b8063232fa73311610224578063232fa7331461039657806323932e041461039e57806323b872dd14610425578063275ac2521461046857806328fd10d71461049257610267565b806306fdde031461026c578063095ea7b3146102f65780630fc728891461034357806318160ddd1461036a5780631b55b2a81461037f57610267565b3661026757005b600080fd5b34801561027857600080fd5b50610281610aea565b6040805160208082528351818301528351919283929083019185019080838360005b838110156102bb5781810151838201526020016102a3565b50505050905090810190601f1680156102e85780820380516001836020036101000a031916815260200191505b509250505060405180910390f35b34801561030257600080fd5b5061032f6004803603604081101561031957600080fd5b506001600160a01b038135169060200135610b81565b604080519115158252519081900360200190f35b34801561034f57600080fd5b50610358610b9f565b60408051918252519081900360200190f35b34801561037657600080fd5b50610358610bde565b34801561038b57600080fd5b50610394610bed565b005b610394610e17565b61039460048036036101c08110156103b557600080fd5b508035906020810135906001600160a01b0360408201358116916060810135821691608082013581169160a08101359160c08201359160e0810135916101008201358116916101208101359161014082013515159161016081013590911690610180810135906101a00135611089565b34801561043157600080fd5b5061032f6004803603606081101561044857600080fd5b506001600160a01b03813581169160208101359091169060400135611277565b34801561047457600080fd5b506103586004803603602081101561048b57600080fd5b50356112ff565b34801561049e57600080fd5b506104c5600480360360208110156104b557600080fd5b50356001600160a01b0316611322565b60408051938452602084019290925282820152519081900360600190f35b610394600480360360608110156104f957600080fd5b506001600160a01b0381351690602081013590604001351515611343565b34801561052357600080fd5b5061052c611696565b6040805160ff9092168252519081900360200190f35b34801561054e57600080fd5b5061032f6004803603604081101561056557600080fd5b506001600160a01b03813516906020013561169f565b34801561058757600080fd5b506103946116ed565b34801561059c57600080fd5b50610358600480360360408110156105b357600080fd5b50803590602001356118c0565b3480156105cc57600080fd5b506103586119b9565b3480156105e157600080fd5b50610358600480360360608110156105f857600080fd5b506001600160a01b03813581169160208101359091169060400135611b48565b34801561062457600080fd5b5061032f611c69565b34801561063957600080fd5b50610642611c72565b604080516001600160a01b039d8e168152602081019c909c528b81019a909a5260608b0198909852958a1660808a015260a089019490945260c088019290925260e0870152610100860152851661012085015284166101408401529092166101608201529051908190036101800190f35b3480156106bf57600080fd5b50610358600480360360208110156106d657600080fd5b50356001600160a01b0316611cb2565b3480156106f257600080fd5b506103586004803603606081101561070957600080fd5b508035906001600160a01b036020820135169060400135611ccd565b34801561073157600080fd5b506103586004803603602081101561074857600080fd5b50356001600160a01b0316611d90565b34801561076457600080fd5b50610394611e52565b6103946004803603606081101561078357600080fd5b5080351515906020810135151590604001351515611eef565b3480156107a857600080fd5b506107b16122ed565b604051808581526020018481526020018360058111156107cd57fe5b815260200182815260200194505050505060405180910390f35b3480156107f357600080fd5b506107fc612302565b604080516001600160a01b039092168252519081900360200190f35b34801561082457600080fd5b50610394612311565b34801561083957600080fd5b506102816125c6565b34801561084e57600080fd5b50610394612627565b34801561086357600080fd5b5061032f6004803603604081101561087a57600080fd5b506001600160a01b038135169060200135612b01565b34801561089c57600080fd5b5061032f600480360360408110156108b357600080fd5b506001600160a01b038135169060200135612b69565b3480156108d557600080fd5b50610358612b7d565b3480156108ea57600080fd5b506109116004803603602081101561090157600080fd5b50356001600160a01b0316612b91565b6040805192835260208301919091528051918290030190f35b34801561093657600080fd5b50610394612bae565b6103946004803603608081101561095557600080fd5b506001600160a01b038135169060208101351515906040810135151590606001351515612d85565b6103946004803603606081101561099357600080fd5b506001600160a01b0381351690602081013590604001351515612f1f565b3480156109bd57600080fd5b50610358600480360360208110156109d457600080fd5b50356001600160a01b0316613177565b3480156109f057600080fd5b5061039460048036036040811015610a0757600080fd5b5080351515906020013515156132af565b61039460048036036040811015610a2e57600080fd5b50803590602001351515613524565b348015610a4957600080fd5b5061035860048036036020811015610a6057600080fd5b50356135ac565b348015610a7357600080fd5b5061035860048036036020811015610a8a57600080fd5b50356001600160a01b03166135c0565b348015610aa657600080fd5b5061035860048036036040811015610abd57600080fd5b506001600160a01b0381358116916020013516613614565b348015610ae157600080fd5b5061035861363f565b60368054604080516020601f6002600019610100600188161502019095169490940493840181900481028201810190925282815260609390929091830182828015610b765780601f10610b4b57610100808354040283529160200191610b76565b820191906000526020600020905b815481529060010190602001808311610b5957829003601f168201915b505050505090505b90565b6000610b95610b8e613666565b848461366a565b5060015b92915050565b60d45460ce546040805180820190915260028152610ccd60f21b60208201526000928392610bd892610bd2914291613756565b906137ed565b91505090565b6000610be8613854565b905090565b60da5460ff166000816005811115610c0157fe5b14610c39576040805162461bcd60e51b815260206004820152600360248201526243503160e81b604482015290519081900360640190fd5b60ce5460ca546001600160a01b03164282108015610ce05750610cd668327cb2734119d3b7a9601e1b610bd260cc60010154846001600160a01b031663c2bb7c8d6040518163ffffffff1660e01b815260040160206040518083038186803b158015610ca457600080fd5b505afa158015610cb8573d6000803e3d6000fd5b505050506040513d6020811015610cce57600080fd5b50519061385a565b610cde610bde565b105b15610cf757610cef60006138b3565b505050610e15565b60cf5442811115610d475760cc546001600160a01b03163314610d47576040805162461bcd60e51b815260206004820152600360248201526221a81960e91b604482015290519081900360640190fd5b60d8546000610d5685846139d7565b90506000846001600160a01b031663816a11216040518163ffffffff1660e01b815260040160206040518083038186803b158015610d9357600080fd5b505afa158015610da7573d6000803e3d6000fd5b505050506040513d6020811015610dbd57600080fd5b505160d254909150600090610e019068327cb2734119d3b7a9601e1b90610bd2906301e133809082908890610dfb90869084908d9084908d9061385a565b9061385a565b9050610e0c816138b3565b50505050505050505b565b600260c9541415610e5d576040805162461bcd60e51b815260206004820152601f602482015260008051602061567a833981519152604482015290519081900360640190fd5b600260c95560ca546040805163171e108560e01b815290516001600160a01b039092169163171e108591600480820192602092909190829003018186803b158015610ea757600080fd5b505afa158015610ebb573d6000803e3d6000fd5b505050506040513d6020811015610ed157600080fd5b50516001600160a01b03163314610f15576040805162461bcd60e51b81526020600482015260036024820152624f523160e81b604482015290519081900360640190fd5b600160da5460ff166005811115610f2857fe5b14610f60576040805162461bcd60e51b8152602060048201526003602482015262434c3160e81b604482015290519081900360640190fd5b60da805460ff1916600217905560ca54604080516302d5537b60e41b815290516001600160a01b0390921691632d5537b091600480820192602092909190829003018186803b158015610fb257600080fd5b505afa158015610fc6573d6000803e3d6000fd5b505050506040513d6020811015610fdc57600080fd5b5051604080516311f2df1b60e21b815290516001600160a01b03909216916347cb7c6c9160048082019260009290919082900301818387803b15801561102157600080fd5b505af1158015611035573d6000803e3d6000fd5b505060cc5461105192506001600160a01b031690506000613a0e565b611059613bbd565b6040517fd9fd1a29efbd67e74bbcd110e7344e0a2fbc8efd8334b946c1b805670d8d08ea90600090a1600160c955565b600054610100900460ff16806110a257506110a2613c5d565b806110b0575060005460ff16155b6110eb5760405162461bcd60e51b815260040180806020018281038252602e815260200180615732602e913960400191505060405180910390fd5b600054610100900460ff16158015611116576000805460ff1961ff0019909116610100171660011790555b60ca8054336001600160a01b03199182161790915560d0805482166001600160a01b038f81169190911790915560d18c905560d5805483168e831617905560d6805490921690891617905560cd8f90556111718d8787613c6e565b8c60cc60000160006101000a8154816001600160a01b0302191690836001600160a01b031602179055508d60cc600601819055508760cc600701819055508860cc600801819055508360cc600b0160006101000a8154816001600160a01b0302191690836001600160a01b031602179055506111f68242613cff90919063ffffffff16565b60ce5561120d836112074285613cff565b90613cff565b60cf55604080518082018252600b81526a506f6f6c20546f6b656e7360a81b60208083019190915282518084019093526002835261141560f21b9083015261125491613d59565b8015611266576000805461ff00191690555b505050505050505050505050505050565b6000611284848484613e0f565b6112f484611290613666565b6112ef85604051806060016040528060288152602001615781602891396001600160a01b038a166000908152603460205260408120906112ce613666565b6001600160a01b031681526020810191909152604001600020549190613756565b61366a565b5060015b9392505050565b6000806112f86301e13380610bd260cc600601548661385a90919063ffffffff16565b60cb6020526000908152604090208054600182015460029092015490919083565b600260c9541415611389576040805162461bcd60e51b815260206004820152601f602482015260008051602061567a833981519152604482015290519081900360640190fd5b600260c95560d75460cc546001600160a01b039182169190811690851681148015906113be57506001600160a01b0381163314155b6113f4576040805162461bcd60e51b81526020600482015260026024820152614c3160f01b604482015290519081900360640190fd5b6001600160a01b038216156115305760ca60009054906101000a90046001600160a01b03166001600160a01b0316635c7460d66040518163ffffffff1660e01b815260040160206040518083038186803b15801561145157600080fd5b505afa158015611465573d6000803e3d6000fd5b505050506040513d602081101561147b57600080fd5b505160408051625a87b960e31b81526001600160a01b0388811660048301528581166024830152915191909216916302d43dc8916044808301926020929190829003018186803b1580156114ce57600080fd5b505afa1580156114e2573d6000803e3d6000fd5b505050506040513d60208110156114f857600080fd5b5051611530576040805162461bcd60e51b8152602060048201526002602482015261261960f11b604482015290519081900360640190fd5b600060da5460ff16600581111561154357fe5b148015611551575060ce5442105b611587576040805162461bcd60e51b81526020600482015260026024820152614c3360f01b604482015290519081900360640190fd5b60cd546000611594610bde565b9050816115a18783613cff565b11156115b4576115b18282613f6c565b95505b60d05460ca546040805163fdc19bb760e01b815290516001600160a01b039384169361163d938a9360009387938e93169163fdc19bb7916004828101926020929190829003018186803b15801561160a57600080fd5b505afa15801561161e573d6000803e3d6000fd5b505050506040513d602081101561163457600080fd5b50513330613fc9565b5061164888886140e2565b6040805188815290516001600160a01b038a16917ff09dbebdc018e2d81469b76b813a178bbc38dde6fd1056134b68f291a58802e2919081900360200190a25050600160c955505050505050565b60385460ff1690565b6000610b956116ac613666565b846112ef85603460006116bd613666565b6001600160a01b03908116825260208083019390935260409182016000908120918c168152925290205490613cff565b60ca60009054906101000a90046001600160a01b03166001600160a01b0316638da5cb5b6040518163ffffffff1660e01b815260040160206040518083038186803b15801561173b57600080fd5b505afa15801561174f573d6000803e3d6000fd5b505050506040513d602081101561176557600080fd5b50516001600160a01b031633146117a9576040805162461bcd60e51b81526020600482015260036024820152624f4f3160e81b604482015290519081900360640190fd5b6117b4336000613a0e565b6117bc613bbd565b60da805460ff1916600517905560ca54604080516302d5537b60e41b815290516001600160a01b0390921691632d5537b091600480820192602092909190829003018186803b15801561180e57600080fd5b505afa158015611822573d6000803e3d6000fd5b505050506040513d602081101561183857600080fd5b5051604080516311f2df1b60e21b815290516001600160a01b03909216916347cb7c6c9160048082019260009290919082900301818387803b15801561187d57600080fd5b505af1158015611891573d6000803e3d6000fd5b50506040517f07d64959f11f8107f710e3e88140e45b57efb9e6653fbf73e9e546b8aa1b0b36925060009150a1565b6000806118da6118ce610bde565b610bd286610dfb6119b9565b60d55460d654604080516359846d2960e01b8152600481018890526001600160a01b039384166024820181905291519495509093919092169160009183916359846d2991604480830192602092919082900301818787803b15801561193e57600080fd5b505af1158015611952573d6000803e3d6000fd5b505050506040513d602081101561196857600080fd5b505160d0549091506000906119889085906001600160a01b031684611b48565b90506119ad6119978987613cff565b610bd28368327cb2734119d3b7a9601e1b61385a565b98975050505050505050565b60ca546040805163171e108560e01b815290516000926001600160a01b03169183918291849163171e108591600480820192602092909190829003018186803b158015611a0557600080fd5b505afa158015611a19573d6000803e3d6000fd5b505050506040513d6020811015611a2f57600080fd5b50516040805160016216f02b60e01b0319815230600482015281516001600160a01b039093169263ffe90fd592602480840193919291829003018186803b158015611a7957600080fd5b505afa158015611a8d573d6000803e3d6000fd5b505050506040513d6040811015611aa357600080fd5b50805160209091015190925090506000611ac94268327cb2734119d3b7a9601e1b61385a565b60ce54909150600090611af390611aec9068327cb2734119d3b7a9601e1b61385a565b8390613f6c565b9050838111611b0a57600095505050505050610b7e565b6000611b3d789f4f2726179a224501d762422c946590d91000000000000000610bd2611b368589613f6c565b879061385a565b965050505050505090565b600080600060ca60009054906101000a90046001600160a01b03166001600160a01b0316632630c12f6040518163ffffffff1660e01b815260040160206040518083038186803b158015611b9b57600080fd5b505afa158015611baf573d6000803e3d6000fd5b505050506040513d6020811015611bc557600080fd5b5051604080516310603c1160e01b81526001600160a01b038981166004830152888116602483015282519316926310603c1192604480840193919291829003018186803b158015611c1557600080fd5b505afa158015611c29573d6000803e3d6000fd5b505050506040513d6040811015611c3f57600080fd5b5080516020909101519092509050611c5f600a82900a610bd2868561385a565b9695505050505050565b60655460ff1690565b60cc5460cd5460ce5460cf5460d05460d15460d25460d35460d45460d55460d65460d7546001600160a01b039b8c169b978816979283169291821691168c565b6001600160a01b031660009081526033602052604090205490565b60d55460d054604080516310603c1160e01b81526001600160a01b0393841660048201529183166024830152805160009384938493918816926310603c1192604480840193919291829003018186803b158015611d2957600080fd5b505afa158015611d3d573d6000803e3d6000fd5b505050506040513d6040811015611d5357600080fd5b5080516020909101519092509050611c5f68327cb2734119d3b7a9601e1b610bd2611d7e8288613f6c565b610dfb600a86900a610bd28c8961385a565b60008060ca60009054906101000a90046001600160a01b03166001600160a01b0316639b9842c16040518163ffffffff1660e01b815260040160206040518083038186803b158015611de157600080fd5b505afa158015611df5573d6000803e3d6000fd5b505050506040513d6020811015611e0b57600080fd5b50516001600160a01b038416600090815260cb6020526040902060010154909150611e41611e3a83600261385a565b8290613cff565b4211156112f8575060009392505050565b33611e5c81611cb2565b611e93576040805162461bcd60e51b8152602060048201526003602482015262494c3160e81b604482015290519081900360640190fd5b600260c9541415611ed9576040805162461bcd60e51b815260206004820152601f602482015260008051602061567a833981519152604482015290519081900360640190fd5b600260c955611ee7336141d4565b50600160c955565b600260c9541415611f35576040805162461bcd60e51b815260206004820152601f602482015260008051602061567a833981519152604482015290519081900360640190fd5b600260c95560da5460ca5460ff909116906001600160a01b03166001826005811115611f5d57fe5b14611f95576040805162461bcd60e51b81526020600482015260036024820152624c503160e81b604482015290519081900360640190fd5b806001600160a01b031663171e10856040518163ffffffff1660e01b815260040160206040518083038186803b158015611fce57600080fd5b505afa158015611fe2573d6000803e3d6000fd5b505050506040513d6020811015611ff857600080fd5b505160408051633bada68960e21b815230600482015290516001600160a01b039092169163eeb69a2491602480820192602092909190829003018186803b15801561204257600080fd5b505afa158015612056573d6000803e3d6000fd5b505050506040513d602081101561206c57600080fd5b50516120a5576040805162461bcd60e51b815260206004820152600360248201526226281960e91b604482015290519081900360640190fd5b60da805460ff1916600417905560d55460d05460d95460d8546001600160a01b0393841693909216916000916120db9190613cff565b60d654604080516359846d2960e01b8152600481018490526001600160a01b0387811660248301529151939450911691839183916359846d29916044808201926020929091908290030181600087803b15801561213757600080fd5b505af115801561214b573d6000803e3d6000fd5b505050506040513d602081101561216157600080fd5b505160408051632630c12f60e01b8152905191925060009161224c9184916001600160a01b038b1691632630c12f916004808301926020929190829003018186803b1580156121af57600080fd5b505afa1580156121c3573d6000803e3d6000fd5b505050506040513d60208110156121d957600080fd5b50516040805163acca944f60e01b815290516001600160a01b038c169163acca944f916004808301926020929190829003018186803b15801561221b57600080fd5b505afa15801561222f573d6000803e3d6000fd5b505050506040513d602081101561224557600080fd5b5051611ccd565b905060d86001016000905560d8600001600090556122a18b600087848b6001600160a01b031663fdc19bb76040518163ffffffff1660e01b815260040160206040518083038186803b15801561160a57600080fd5b506122af8a8a88868661423f565b5060405133907fc54b2aa56ebf583bfce79c646ac5d4618f0e44bc6874bd07194673a5bd2626a090600090a25050600160c955505050505050505050565b60d85460d95460da5460db5460ff9091169084565b60cc546001600160a01b031690565b3361231b81611cb2565b612352576040805162461bcd60e51b8152602060048201526003602482015262494c3160e81b604482015290519081900360640190fd5b600260c9541415612398576040805162461bcd60e51b815260206004820152601f602482015260008051602061567a833981519152604482015290519081900360640190fd5b600260c981905560da5460ff16908160058111156123b257fe5b14806123c9575060038160058111156123c757fe5b145b806123df575060048160058111156123dd57fe5b145b806123f5575060058160058111156123f357fe5b145b61242c576040805162461bcd60e51b8152602060048201526003602482015262574c3160e81b604482015290519081900360640190fd5b600061243733611cb2565b905080600483600581111561244857fe5b148061245f5750600583600581111561245d57fe5b145b156125125760d0546000906001600160a01b0316156124f65760d054604080516370a0823160e01b815230600482015290516001600160a01b03909216916370a0823191602480820192602092909190829003018186803b1580156124c357600080fd5b505afa1580156124d7573d6000803e3d6000fd5b505050506040513d60208110156124ed57600080fd5b505190506124f9565b50475b61250e612504610bde565b610bd2848461385a565b9150505b600383600581111561252057fe5b141561254557612542611e3a612534610bde565b60db54610bd290859061385a565b90505b600283600581111561255357fe5b141561256257612562336141d4565b61256c33836142ce565b60d054612584906001600160a01b03168230336143ca565b5060408051828152905133917f971f63643b6d0341cf9c1971238adc8625537ce1c41ba0a9dfcbd784832bd5f9919081900360200190a25050600160c9555050565b60378054604080516020601f6002600019610100600188161502019095169490940493840181900481028201810190925282815260609390929091830182828015610b765780601f10610b4b57610100808354040283529160200191610b76565b60cc5433906001600160a01b0316811461266e576040805162461bcd60e51b81526020600482015260036024820152624f423160e81b604482015290519081900360640190fd5b600260c95414156126b4576040805162461bcd60e51b815260206004820152601f602482015260008051602061567a833981519152604482015290519081900360640190fd5b600260c95560da5460ff1660006126c9610bde565b905060008260058111156126d957fe5b1480156126e7575060ce5442115b80156126f4575060cf5442105b61272e576040805162461bcd60e51b815260206004808301919091526024820152635742413160e01b604482015290519081900360640190fd5b60ca5460cd546040805163c2bb7c8d60e01b815290516001600160a01b039093169261278d9268327cb2734119d3b7a9601e1b92610bd292869163c2bb7c8d916004808301926020929190829003018186803b158015610ca457600080fd5b8210156127ca576040805162461bcd60e51b815260206004808301919091526024820152632ba1209960e11b604482015290519081900360640190fd5b60da805460ff1916600117905560006127e161363f565b60d154909150811015612824576040805162461bcd60e51b815260206004808301919091526024820152635742413360e01b604482015290519081900360640190fd5b60d35460d4546040805163171e108560e01b815290516001600160a01b0386169163171e1085916004808301926020929190829003018186803b15801561286a57600080fd5b505afa15801561287e573d6000803e3d6000fd5b505050506040513d602081101561289457600080fd5b505160d25460ce5460d05460408051632447e4a760e11b8152600481018890526001600160801b0387166024820152604481019490945260648401929092526001600160a01b039081166084840152905192169163488fc94e9160a48082019260009290919082900301818387803b15801561290f57600080fd5b505af1158015612923573d6000803e3d6000fd5b50505050836001600160a01b0316632d5537b06040518163ffffffff1660e01b815260040160206040518083038186803b15801561296057600080fd5b505afa158015612974573d6000803e3d6000fd5b505050506040513d602081101561298a57600080fd5b505160408051631e9ff3a960e31b81526001600160801b038416600482015290516001600160a01b039092169163f4ff9d489160248082019260009290919082900301818387803b1580156129de57600080fd5b505af11580156129f2573d6000803e3d6000fd5b505060d05460408051637bad520760e01b815281516001600160a01b0393841695506000945084938a1692637bad52079260048181019391829003018186803b158015612a3e57600080fd5b505afa158015612a52573d6000803e3d6000fd5b505050506040513d6040811015612a6857600080fd5b50805160209091015190925090506000612a9268327cb2734119d3b7a9601e1b610bd28b8661385a565b600060cf559050612aa5848230856143ca565b50612abb84612ab48b84613f6c565b30336143ca565b50604080518a815290517fd34aff353e8e4ad78ec390d5c4bd580941a8299db97e6c9b7a536ce2030d09899181900360200190a15050600160c955505050505050505050565b6000610b95612b0e613666565b846112ef856040518060600160405280602581526020016158736025913960346000612b38613666565b6001600160a01b03908116825260208083019390935260409182016000908120918d16815292529020549190613756565b6000610b95612b76613666565b8484613e0f565b60da5460009060ff166005811115610be857fe5b600080612b9d83611cb2565b612ba5610bde565b91509150915091565b33612bb881611cb2565b612bef576040805162461bcd60e51b8152602060048201526003602482015262494c3160e81b604482015290519081900360640190fd5b600160da5460ff166005811115612c0257fe5b14612c3d576040805162461bcd60e51b81526020600480830191909152602482015263524d433160e01b604482015290519081900360640190fd5b60ca546001600160a01b0316612c5233611d90565b15612c8d576040805162461bcd60e51b815260206004808301919091526024820152632926a19960e11b604482015290519081900360640190fd5b612c96336135c0565b60d15411612cd4576040805162461bcd60e51b81526020600480830191909152602482015263524d433360e01b604482015290519081900360640190fd5b612d43816001600160a01b0316639b9842c16040518163ffffffff1660e01b815260040160206040518083038186803b158015612d1057600080fd5b505afa158015612d24573d6000803e3d6000fd5b505050506040513d6020811015612d3a57600080fd5b50514290613cff565b33600081815260cb602052604080822060010193909355915190917f5334a046b9fb8040bcaa4dd9a9ecbbe06e299568931f336e4aa6bbf51d511b8091a25050565b600260c9541415612dcb576040805162461bcd60e51b815260206004820152601f602482015260008051602061567a833981519152604482015290519081900360640190fd5b600260c955612dd9846145bb565b60d6546001600160a01b0316600080612df187614737565b60d554604080516359846d2960e01b8152600481018590526001600160a01b03928316602482015290519395509193508492908616916359846d299160448083019260209291908290030181600087803b158015612e4e57600080fd5b505af1158015612e62573d6000803e3d6000fd5b505050506040513d6020811015612e7857600080fd5b50519050612e878789836147b1565b60d554600090612ea590889088906001600160a01b0316888661423f565b9050612eb189846142ce565b6001600160a01b038916600081815260cb6020908152604080832083815560018101849055600201929092558151848152915133927f9b4fed4f3cd02b7624ed7521dce91b2f3aee138fc5c04d59f2f087e6b261a40d92908290030190a35050600160c95550505050505050565b600260c9541415612f65576040805162461bcd60e51b815260206004820152601f602482015260008051602061567a833981519152604482015290519081900360640190fd5b600260c955600160da5460ff166005811115612f7d57fe5b14612fb7576040805162461bcd60e51b815260206004820152600560248201526441434d433160d81b604482015290519081900360640190fd5b612fc033611cb2565b15612ffa576040805162461bcd60e51b815260206004820152600560248201526420a1a6a19960d91b604482015290519081900360640190fd5b4261300484611d90565b101561303f576040805162461bcd60e51b815260206004820152600560248201526441434d433360d81b604482015290519081900360640190fd5b81613079576040805162461bcd60e51b81526020600482015260056024820152641050d350cd60da1b604482015290519081900360640190fd5b60d55460d6546000916130a19184916001916001600160a01b03918216918891163330613fc9565b60d9549091506130b19082613cff565b60d9556001600160a01b038416600090815260cb60205260409020600201546130da9082613cff565b6001600160a01b038516600090815260cb602052604090206002015560d154613102856135c0565b10613124576001600160a01b038416600090815260cb60205260408120600101555b604080518481526020810183905281516001600160a01b0387169233927f7745b8ee282b3bb1a0958b211eb3a34506deb988e5488e560a63b83ce03ba9d9929081900390910190a35050600160c9555050565b60008060ca60009054906101000a90046001600160a01b03166001600160a01b031663171e10856040518163ffffffff1660e01b815260040160206040518083038186803b1580156131c857600080fd5b505afa1580156131dc573d6000803e3d6000fd5b505050506040513d60208110156131f257600080fd5b505160408051630a3371f560e11b815230600482015290516001600160a01b0390921691631466e3ea91602480820192602092909190829003018186803b15801561323c57600080fd5b505afa158015613250573d6000803e3d6000fd5b505050506040513d602081101561326657600080fd5b50516001600160a01b038416600090815260cb6020526040812054919250906132a7906132a1613294610bde565b610bd286610dfb8a611cb2565b90613f6c565b949350505050565b600260c95414156132f5576040805162461bcd60e51b815260206004820152601f602482015260008051602061567a833981519152604482015290519081900360640190fd5b600260c955600360da5460ff16600581111561330d57fe5b14613348576040805162461bcd60e51b815260206004808301919091526024820152634c43503160e01b604482015290519081900360640190fd5b60db5415613386576040805162461bcd60e51b815260206004808301919091526024820152632621a81960e11b604482015290519081900360640190fd5b60ca5460d65460d55460d854604080516359846d2960e01b8152600481018390526001600160a01b03938416602482018190529151958416959390941693909284916359846d299160448083019260209291908290030181600087803b1580156133ef57600080fd5b505af1158015613403573d6000803e3d6000fd5b505050506040513d602081101561341957600080fd5b505160408051632630c12f60e01b815290519192506000916134d39184916001600160a01b03891691632630c12f916004808301926020929190829003018186803b15801561346757600080fd5b505afa15801561347b573d6000803e3d6000fd5b505050506040513d602081101561349157600080fd5b50516040805163acca944f60e01b815290516001600160a01b038a169163acca944f916004808301926020929190829003018186803b15801561221b57600080fd5b60db81905560d0549091506134f3906001600160a01b03168233306143ca565b5060d55460d65461351591899189916001600160a01b0390811691168661423f565b5050600160c955505050505050565b8161355c576040805162461bcd60e51b815260206004820152600360248201526244433160e81b604482015290519081900360640190fd5b61356533611cb2565b1561359d576040805162461bcd60e51b815260206004820152600360248201526222219960e91b604482015290519081900360640190fd5b6135a83383836148a6565b5050565b6000610b9960cc60080154610dfb846112ff565b6000806135cc83611cb2565b6001600160a01b038416600090815260cb602052604081206002015491925090613608906112076135fb610bde565b60d854610bd2908761385a565b90506132a782826118c0565b6001600160a01b03918216600090815260346020908152604080832093909416825291909152205490565b60d95460d854600091829161365391613cff565b9050610bd8613660610bde565b826118c0565b3390565b6001600160a01b0383166136af5760405162461bcd60e51b81526004018080602001828103825260248152602001806157ef6024913960400191505060405180910390fd5b6001600160a01b0382166136f45760405162461bcd60e51b81526004018080602001828103825260228152602001806156bc6022913960400191505060405180910390fd5b6001600160a01b03808416600081815260346020908152604080832094871680845294825291829020859055815185815291517f8c5be1e5ebec7d5bd14f71427d1e84f3dd0314c0f7b2291e5b200ac8c7c3b9259281900390910190a3505050565b600081848411156137e55760405162461bcd60e51b81526004018080602001828103825283818151815260200191508051906020019080838360005b838110156137aa578181015183820152602001613792565b50505050905090810190601f1680156137d75780820380516001836020036101000a031916815260200191505b509250505060405180910390fd5b505050900390565b6000808211613843576040805162461bcd60e51b815260206004820152601a60248201527f536166654d6174683a206469766973696f6e206279207a65726f000000000000604482015290519081900360640190fd5b81838161384c57fe5b049392505050565b60355490565b60008261386957506000610b99565b8282028284828161387657fe5b04146112f85760405162461bcd60e51b81526004018080602001828103825260218152602001806157606021913960400191505060405180910390fd5b60da805460ff1916600317905560ca54604080516302d5537b60e41b815290516001600160a01b0390921691632d5537b091600480820192602092909190829003018186803b15801561390557600080fd5b505afa158015613919573d6000803e3d6000fd5b505050506040513d602081101561392f57600080fd5b5051604080516311f2df1b60e21b815290516001600160a01b03909216916347cb7c6c9160048082019260009290919082900301818387803b15801561397457600080fd5b505af1158015613988573d6000803e3d6000fd5b505060cc546139a392506001600160a01b0316905082613a0e565b6139ab613bbd565b6040517f8cbd53891ca54fbd5e0e3309a32f9a006458224831c41274a5fd8d8a0d937e7190600090a150565b60d454600090428410156112f85742838111156139f15750825b613a056139fe8287613f6c565b8390613cff565b95945050505050565b60d65460d55460d95460d8546001600160a01b0393841693909216916000918591613a3891613cff565b1115613a565760d95460d854613a539186916132a191613cff565b90505b6000836001600160a01b03166359846d2983856040518363ffffffff1660e01b815260040180838152602001826001600160a01b0316815260200192505050602060405180830381600087803b158015613aaf57600080fd5b505af1158015613ac3573d6000803e3d6000fd5b505050506040513d6020811015613ad957600080fd5b505160d8869055600060d98190559091508215613b755760ca546040805163ecced62360e01b815290516000926001600160a01b03169163ecced623916004808301926020929190829003018186803b158015613b3557600080fd5b505afa158015613b49573d6000803e3d6000fd5b505050506040513d6020811015613b5f57600080fd5b50519050613b7181308a86898b61497a565b9150505b6040805182815290516001600160a01b038916917fc30fcfbcaac9e0deffa719714eaa82396ff506a0d0d0eebe170830177288715d919081900360200190a250505050505050565b613bc5611c69565b15613c0a576040805162461bcd60e51b815260206004820152601060248201526f14185d5cd8589b194e881c185d5cd95960821b604482015290519081900360640190fd5b6065805460ff191660011790557f62e78cea01bee320cd4e420270b5ea74000d11b0c9f74754ebdbfc544b05a258613c40613666565b604080516001600160a01b039092168252519081900360200190a1565b6000613c6830614ac5565b15905090565b60d05460d55460cd54600092613c92926001600160a01b0391821692911690611b48565b60d154909150613cb49068327cb2734119d3b7a9601e1b90610bd2908461385a565b831015613cee576040805162461bcd60e51b815260206004820152600360248201526249443160e81b604482015290519081900360640190fd5b613cf98484846148a6565b50505050565b6000828201838110156112f8576040805162461bcd60e51b815260206004820152601b60248201527f536166654d6174683a206164646974696f6e206f766572666c6f770000000000604482015290519081900360640190fd5b600054610100900460ff1680613d725750613d72613c5d565b80613d80575060005460ff16155b613dbb5760405162461bcd60e51b815260040180806020018281038252602e815260200180615732602e913960400191505060405180910390fd5b600054610100900460ff16158015613de6576000805460ff1961ff0019909116610100171660011790555b613dee614acb565b613df88383614b6c565b8015613e0a576000805461ff00191690555b505050565b6001600160a01b038316613e545760405162461bcd60e51b81526004018080602001828103825260258152602001806157ca6025913960400191505060405180910390fd5b6001600160a01b038216613e995760405162461bcd60e51b81526004018080602001828103825260238152602001806156576023913960400191505060405180910390fd5b613ea4838383614c44565b613ee1816040518060600160405280602681526020016156de602691396001600160a01b0386166000908152603360205260409020549190613756565b6001600160a01b038085166000908152603360205260408082209390935590841681522054613f109082613cff565b6001600160a01b0380841660008181526033602090815260409182902094909455805185815290519193928716927fddf252ad1be2c89b69c2b068fc378daa952ba7f163c4a11628f55a4df523b3ef92918290030190a3505050565b600082821115613fc3576040805162461bcd60e51b815260206004820152601e60248201527f536166654d6174683a207375627472616374696f6e206f766572666c6f770000604482015290519081900360640190fd5b50900390565b600087156140575760ca546040805163ecced62360e01b81529051614050926001600160a01b03169163ecced623916004808301926020929190829003018186803b15801561401757600080fd5b505afa15801561402b573d6000803e3d6000fd5b505050506040513d602081101561404157600080fd5b50518484888a8960018e614f51565b90506140d7565b60ca546040805163ecced62360e01b815290516140d4926001600160a01b03169163ecced623916004808301926020929190829003018186803b15801561409d57600080fd5b505afa1580156140b1573d6000803e3d6000fd5b505050506040513d60208110156140c757600080fd5b50518484888a8c8a614f7d565b90505b979650505050505050565b6001600160a01b03821661413d576040805162461bcd60e51b815260206004820152601f60248201527f45524332303a206d696e7420746f20746865207a65726f206164647265737300604482015290519081900360640190fd5b61414960008383614c44565b6035546141569082613cff565b6035556001600160a01b03821660009081526033602052604090205461417c9082613cff565b6001600160a01b03831660008181526033602090815260408083209490945583518581529351929391927fddf252ad1be2c89b69c2b068fc378daa952ba7f163c4a11628f55a4df523b3ef9281900390910190a35050565b60006141df82613177565b9050806141ec575061423c565b6001600160a01b038216600090815260cb602052604090205461420f9082613cff565b6001600160a01b03808416600090815260cb602052604090209190915560d054613e0a91168230856143ca565b50565b60008060ca60009054906101000a90046001600160a01b03166001600160a01b031663ecced6236040518163ffffffff1660e01b815260040160206040518083038186803b15801561429057600080fd5b505afa1580156142a4573d6000803e3d6000fd5b505050506040513d60208110156142ba57600080fd5b505190506140d78130338689898c8e614f51565b6001600160a01b0382166143135760405162461bcd60e51b81526004018080602001828103825260218152602001806157a96021913960400191505060405180910390fd5b61431f82600083614c44565b61435c8160405180606001604052806022815260200161569a602291396001600160a01b0385166000908152603360205260409020549190613756565b6001600160a01b0383166000908152603360205260409020556035546143829082613f6c565b6035556040805182815290516000916001600160a01b038516917fddf252ad1be2c89b69c2b068fc378daa952ba7f163c4a11628f55a4df523b3ef9181900360200190a35050565b6000836143d9575060006132a7565b6001600160a01b03851661457357833410156144265760405162461bcd60e51b815260040180806020018281038252602e815260200180615704602e913960400191505060405180910390fd5b6001600160a01b03821630146144d0576040516000906001600160a01b0384169086908381818185875af1925050503d8060008114614481576040519150601f19603f3d011682016040523d82523d6000602084013e614486565b606091505b50509050806144ce576040805162461bcd60e51b815260206004820152600f60248201526e151c985b9cd9995c8819985a5b1959608a1b604482015290519081900360640190fd5b505b8334111561456c57604051600090339034879003908381818185875af1925050503d806000811461451d576040519150601f19603f3d011682016040523d82523d6000602084013e614522565b606091505b505090508061456a576040805162461bcd60e51b815260206004820152600f60248201526e151c985b9cd9995c8819985a5b1959608a1b604482015290519081900360640190fd5b505b50826132a7565b6001600160a01b03831630141561459d576145986001600160a01b0386168386614f9f565b6145b2565b6145b26001600160a01b038616848487614ff1565b50919392505050565b600160da5460ff1660058111156145ce57fe5b1480156145dc575060cf5442115b614615576040805162461bcd60e51b8152602060048201526005602482015264434c424c3160d81b604482015290519081900360640190fd5b6001600160a01b038116600090815260cb602052604090206001015461463a82611d90565b614673576040805162461bcd60e51b815260206004820152600560248201526421a621261960d91b604482015290519081900360640190fd5b4281106146af576040805162461bcd60e51b8152602060048201526005602482015264434c424c3360d81b604482015290519081900360640190fd5b6146b8826135c0565b60d154116146f5576040805162461bcd60e51b815260206004820152600560248201526410d310930d60da1b604482015290519081900360640190fd5b6146fe82611cb2565b6135a8576040805162461bcd60e51b8152602060048201526005602482015264434c424c3560d81b604482015290519081900360640190fd5b60d854600090819061474884611cb2565b91506000614761614757610bde565b610bd2848661385a565b6001600160a01b038616600090815260cb602052604090206002015490915061478a8383613f6c565b60d85560d95461479a9082613f6c565b60d9556147a78282613cff565b9450505050915091565b60d65460ca5460408051632630c12f60e01b815290516001600160a01b0393841693909216916000916148749186918591632630c12f91600480820192602092909190829003018186803b15801561480857600080fd5b505afa15801561481c573d6000803e3d6000fd5b505050506040513d602081101561483257600080fd5b50516040805163acca944f60e01b815290516001600160a01b0387169163acca944f916004808301926020929190829003018186803b15801561221b57600080fd5b60d0549091506001600160a01b0316614893876000838588338c613fc9565b5061489d866141d4565b50505050505050565b600260c95414156148ec576040805162461bcd60e51b815260206004820152601f602482015260008051602061567a833981519152604482015290519081900360640190fd5b600260c95560d55460d6546000916149199184916001916001600160a01b03918216918891168930613fc9565b60d8549091506149299082613cff565b60d855604080518481526020810183905281516001600160a01b038716927f11f8990ac38271f23dea447d5728e9914fca7cea2edda43af6c43c415f8bc30b928290030190a25050600160c9555050565b60006001600160a01b038616301415614a22576040805163448b903960e11b8152600481018690526001600160a01b038581166024830152848116604483015287811660648301529151918916916389172072916084808201926020929091908290030181600087803b1580156149f057600080fd5b505af1158015614a04573d6000803e3d6000fd5b505050506040513d6020811015614a1a57600080fd5b50614aba9050565b604080516319dad0dd60e11b8152600481018690526001600160a01b0385811660248301528481166044830152888116606483015287811660848301529151918916916333b5a1ba9160a4808201926020929091908290030181600087803b158015614a8d57600080fd5b505af1158015614aa1573d6000803e3d6000fd5b505050506040513d6020811015614ab757600080fd5b50505b509195945050505050565b3b151590565b600054610100900460ff1680614ae45750614ae4613c5d565b80614af2575060005460ff16155b614b2d5760405162461bcd60e51b815260040180806020018281038252602e815260200180615732602e913960400191505060405180910390fd5b600054610100900460ff16158015614b58576000805460ff1961ff0019909116610100171660011790555b801561423c576000805461ff001916905550565b600054610100900460ff1680614b855750614b85613c5d565b80614b93575060005460ff16155b614bce5760405162461bcd60e51b815260040180806020018281038252602e815260200180615732602e913960400191505060405180910390fd5b600054610100900460ff16158015614bf9576000805460ff1961ff0019909116610100171660011790555b8251614c0c9060369060208601906155c3565b508151614c209060379060208501906155c3565b506038805460ff191660121790558015613e0a576000805461ff0019169055505050565b6001600160a01b03821615614c9357614c5b611c69565b15614c93576040805162461bcd60e51b815260206004820152600360248201526254543160e81b604482015290519081900360640190fd5b60cc546001600160a01b0383811691161415614cdc576040805162461bcd60e51b81526020600482015260036024820152622a2a1960e91b604482015290519081900360640190fd5b6001600160a01b0383161580614cf957506001600160a01b038216155b15614d0357613e0a565b614d0c83611d90565b15614d44576040805162461bcd60e51b815260206004820152600360248201526254543360e81b604482015290519081900360640190fd5b614d4d82611d90565b15614d85576040805162461bcd60e51b815260206004820152600360248201526215150d60ea1b604482015290519081900360640190fd5b614d8e836141d4565b614d97826141d4565b60ca60009054906101000a90046001600160a01b03166001600160a01b0316632d5537b06040518163ffffffff1660e01b815260040160206040518083038186803b158015614de557600080fd5b505afa158015614df9573d6000803e3d6000fd5b505050506040513d6020811015614e0f57600080fd5b50516040805163722eb6d160e01b81526001600160a01b0386811660048301528581166024830152604482018590529151919092169163722eb6d191606480830192600092919082900301818387803b158015614e6b57600080fd5b505af1158015614e7f573d6000803e3d6000fd5b505050506001600160a01b038316600090815260cb602052604090206002015480614eaa5750613e0a565b80614eb485611cb2565b8314614ed357614ed0614ec686611cb2565b610bd2858561385a565b90505b6001600160a01b038516600090815260cb6020526040902060020154614ef99082613f6c565b6001600160a01b03808716600090815260cb60205260408082206002908101949094559187168152200154614f2e9082613cff565b6001600160a01b038516600090815260cb60205260409020600201555050505050565b60008115614f6e57614f6789898989898961497a565b90506119ad565b614f678989898989898961504b565b60008215614f93576140508888888888876151a7565b614050848689896143ca565b604080516001600160a01b038416602482015260448082018490528251808303909101815260649091019091526020810180516001600160e01b031663a9059cbb60e01b179052613e0a908490615283565b604080516001600160a01b0380861660248301528416604482015260648082018490528251808303909101815260849091019091526020810180516001600160e01b03166323b872dd60e01b179052613cf9908590615283565b60006001600160a01b0387163014156150fc57604080516345cd75e960e01b8152600481018790526001600160a01b0386811660248301528581166044830152888116606483015284151560848301529151918a16916345cd75e99160a4808201926020929091908290030181600087803b1580156150c957600080fd5b505af11580156150dd573d6000803e3d6000fd5b505050506040513d60208110156150f357600080fd5b505190506140d7565b6040805163ea975cb360e01b8152600481018790526001600160a01b03868116602483015285811660448301528981166064830152888116608483015284151560a48301529151918a169163ea975cb39160c4808201926020929091908290030181600087803b15801561516f57600080fd5b505af1158015615183573d6000803e3d6000fd5b505050506040513d602081101561519957600080fd5b505198975050505050505050565b60006151b5838588306143ca565b5060006001600160a01b0384166151cd5750836151f5565b826001600160a01b0381166151df5750875b6151f36001600160a01b0386168288615334565b505b604080516330940a0f60e21b8152600481018790526001600160a01b038681166024830152858116604483015288811660648301529151918a169163c250283c918491608480830192602092919082900301818588803b15801561525857600080fd5b505af115801561526c573d6000803e3d6000fd5b50505050506040513d602081101561519957600080fd5b60606152d8826040518060400160405280602081526020017f5361666545524332303a206c6f772d6c6576656c2063616c6c206661696c6564815250856001600160a01b03166154479092919063ffffffff16565b805190915015613e0a578080602001905160208110156152f757600080fd5b5051613e0a5760405162461bcd60e51b815260040180806020018281038252602a815260200180615813602a913960400191505060405180910390fd5b8015806153ba575060408051636eb1769f60e11b81523060048201526001600160a01b03848116602483015291519185169163dd62ed3e91604480820192602092909190829003018186803b15801561538c57600080fd5b505afa1580156153a0573d6000803e3d6000fd5b505050506040513d60208110156153b657600080fd5b5051155b6153f55760405162461bcd60e51b815260040180806020018281038252603681526020018061583d6036913960400191505060405180910390fd5b604080516001600160a01b038416602482015260448082018490528251808303909101815260649091019091526020810180516001600160e01b031663095ea7b360e01b179052613e0a908490615283565b60606132a784846000858561545b85614ac5565b6154ac576040805162461bcd60e51b815260206004820152601d60248201527f416464726573733a2063616c6c20746f206e6f6e2d636f6e7472616374000000604482015290519081900360640190fd5b60006060866001600160a01b031685876040518082805190602001908083835b602083106154eb5780518252601f1990920191602091820191016154cc565b6001836020036101000a03801982511681845116808217855250505050505090500191505060006040518083038185875af1925050503d806000811461554d576040519150601f19603f3d011682016040523d82523d6000602084013e615552565b606091505b50915091506140d78282866060831561556c5750816112f8565b82511561557c5782518084602001fd5b60405162461bcd60e51b81526020600482018181528451602484015284518593919283926044019190850190808383600083156137aa578181015183820152602001613792565b828054600181600116156101000203166002900490600052602060002090601f016020900481019282601f1061560457805160ff1916838001178555615631565b82800160010185558215615631579182015b82811115615631578251825591602001919060010190615616565b5061563d929150615641565b5090565b5b8082111561563d576000815560010161564256fe45524332303a207472616e7366657220746f20746865207a65726f20616464726573735265656e7472616e637947756172643a207265656e7472616e742063616c6c0045524332303a206275726e20616d6f756e7420657863656564732062616c616e636545524332303a20617070726f766520746f20746865207a65726f206164647265737345524332303a207472616e7366657220616d6f756e7420657863656564732062616c616e63656574686572732070726f76696465642073686f756c642062652067726561746572207468616e205f616d6f756e74496e697469616c697a61626c653a20636f6e747261637420697320616c726561647920696e697469616c697a6564536166654d6174683a206d756c7469706c69636174696f6e206f766572666c6f7745524332303a207472616e7366657220616d6f756e74206578636565647320616c6c6f77616e636545524332303a206275726e2066726f6d20746865207a65726f206164647265737345524332303a207472616e736665722066726f6d20746865207a65726f206164647265737345524332303a20617070726f76652066726f6d20746865207a65726f20616464726573735361666545524332303a204552433230206f7065726174696f6e20646964206e6f7420737563636565645361666545524332303a20617070726f76652066726f6d206e6f6e2d7a65726f20746f206e6f6e2d7a65726f20616c6c6f77616e636545524332303a2064656372656173656420616c6c6f77616e63652062656c6f77207a65726fa2646970667358221220e9903063b7d0872c7e189a32de2870b62983870beeeaff51c73b1a47ff7e171564736f6c63430007000033",
  "linkReferences": {},
  "deployedLinkReferences": {}
}