{
  "_format": "hh-sol-artifact-1",
  "contractName": "Extension",
  "sourceName": "contracts/Pool/Extension.sol",
  "abi": [
    {
      "anonymous": false,
      "inputs": [
        {
          "indexed": false,
          "internalType": "address",
          "name": "poolID",
          "type": "address"
        }
      ],
      "name": "ExtensionPassed",
      "type": "event"
    },
    {
      "anonymous": false,
      "inputs": [
        {
          "indexed": false,
          "internalType": "uint256",
          "name": "extensionVoteEndTime",
          "type": "uint256"
        }
      ],
      "name": "ExtensionRequested",
      "type": "event"
    },
    {
      "anonymous": false,
      "inputs": [
        {
          "indexed": true,
          "internalType": "address",
          "name": "lender",
          "type": "address"
        },
        {
          "indexed": false,
          "internalType": "uint256",
          "name": "totalExtensionSupport",
          "type": "uint256"
        },
        {
          "indexed": false,
          "internalType": "uint256",
          "name": "lastVoteTime",
          "type": "uint256"
        }
      ],
      "name": "LenderVoted",
      "type": "event"
    },
    {
      "anonymous": false,
      "inputs": [
        {
          "indexed": true,
          "internalType": "address",
          "name": "poolFactory",
          "type": "address"
        }
      ],
      "name": "PoolFactoryUpdated",
      "type": "event"
    },
    {
      "anonymous": false,
      "inputs": [
        {
          "indexed": false,
          "internalType": "uint256",
          "name": "votingPassRatio",
          "type": "uint256"
        }
      ],
      "name": "VotingPassRatioUpdated",
      "type": "event"
    },
    {
      "inputs": [],
      "name": "closePoolExtension",
      "outputs": [],
      "stateMutability": "nonpayable",
      "type": "function"
    },
    {
      "inputs": [
        {
          "internalType": "address",
          "name": "",
          "type": "address"
        }
      ],
      "name": "extensions",
      "outputs": [
        {
          "internalType": "bool",
          "name": "hasExtensionPassed",
          "type": "bool"
        },
        {
          "internalType": "uint64",
          "name": "extensionVoteEndTime",
          "type": "uint64"
        },
        {
          "internalType": "uint128",
          "name": "repaymentInterval",
          "type": "uint128"
        },
        {
          "internalType": "uint256",
          "name": "totalExtensionSupport",
          "type": "uint256"
        }
      ],
      "stateMutability": "view",
      "type": "function"
    },
    {
      "inputs": [
        {
          "internalType": "address",
          "name": "_poolFactory",
          "type": "address"
        },
        {
          "internalType": "uint256",
          "name": "_votingPassRatio",
          "type": "uint256"
        }
      ],
      "name": "initialize",
      "outputs": [],
      "stateMutability": "nonpayable",
      "type": "function"
    },
    {
      "inputs": [
        {
          "internalType": "uint128",
          "name": "_repaymentInterval",
          "type": "uint128"
        }
      ],
      "name": "initializePoolExtension",
      "outputs": [],
      "stateMutability": "nonpayable",
      "type": "function"
    },
    {
      "inputs": [
        {
          "internalType": "address",
          "name": "_from",
          "type": "address"
        },
        {
          "internalType": "address",
          "name": "_to",
          "type": "address"
        },
        {
          "internalType": "uint256",
          "name": "_amount",
          "type": "uint256"
        }
      ],
      "name": "removeVotes",
      "outputs": [],
      "stateMutability": "nonpayable",
      "type": "function"
    },
    {
      "inputs": [
        {
          "internalType": "address",
          "name": "_pool",
          "type": "address"
        }
      ],
      "name": "requestExtension",
      "outputs": [],
      "stateMutability": "nonpayable",
      "type": "function"
    },
    {
      "inputs": [
        {
          "internalType": "address",
          "name": "_poolFactory",
          "type": "address"
        }
      ],
      "name": "updatePoolFactory",
      "outputs": [],
      "stateMutability": "nonpayable",
      "type": "function"
    },
    {
      "inputs": [
        {
          "internalType": "uint256",
          "name": "_votingPassRatio",
          "type": "uint256"
        }
      ],
      "name": "updateVotingPassRatio",
      "outputs": [],
      "stateMutability": "nonpayable",
      "type": "function"
    },
    {
      "inputs": [
        {
          "internalType": "address",
          "name": "_pool",
          "type": "address"
        }
      ],
      "name": "voteOnExtension",
      "outputs": [],
      "stateMutability": "nonpayable",
      "type": "function"
    },
    {
      "inputs": [],
      "name": "votingPassRatio",
      "outputs": [
        {
          "internalType": "uint256",
          "name": "",
          "type": "uint256"
        }
      ],
      "stateMutability": "view",
      "type": "function"
    }
  ],
  "bytecode": "0x608060405234801561001057600080fd5b50611379806100206000396000f3fe608060405234801561001057600080fd5b506004361061009e5760003560e01c806380d59c851161006657806380d59c85146101405780638afed92a14610166578063b9a08bd71461018c578063cd6dc687146101eb578063f4ff9d48146102175761009e565b80630347e804146100a357806345f8f010146100c257806347cb7c6c146100e8578063722eb6d1146100f057806374113a2714610126575b600080fd5b6100c0600480360360208110156100b957600080fd5b503561023d565b005b6100c0600480360360208110156100d857600080fd5b50356001600160a01b031661030b565b6100c06103d6565b6100c06004803603606081101561010657600080fd5b506001600160a01b038135811691602081013590911690604001356103f9565b61012e610541565b60408051918252519081900360200190f35b6100c06004803603602081101561015657600080fd5b50356001600160a01b0316610547565b6100c06004803603602081101561017c57600080fd5b50356001600160a01b03166107d3565b6101b2600480360360208110156101a257600080fd5b50356001600160a01b0316610b4a565b60408051941515855267ffffffffffffffff90931660208501526001600160801b03909116838301526060830152519081900360800190f35b6100c06004803603604081101561020157600080fd5b506001600160a01b038135169060200135610b8a565b6100c06004803603602081101561022d57600080fd5b50356001600160801b0316610c3f565b600260009054906101000a90046001600160a01b03166001600160a01b0316638da5cb5b6040518163ffffffff1660e01b815260040160206040518083038186803b15801561028b57600080fd5b505afa15801561029f573d6000803e3d6000fd5b505050506040513d60208110156102b557600080fd5b50516001600160a01b031633146102ff576040805162461bcd60e51b81526020600482015260096024820152682737ba1037bbb732b960b91b604482015290519081900360640190fd5b61030881610da0565b50565b600260009054906101000a90046001600160a01b03166001600160a01b0316638da5cb5b6040518163ffffffff1660e01b815260040160206040518083038186803b15801561035957600080fd5b505afa15801561036d573d6000803e3d6000fd5b505050506040513d602081101561038357600080fd5b50516001600160a01b031633146103cd576040805162461bcd60e51b81526020600482015260096024820152682737ba1037bbb732b960b91b604482015290519081900360640190fd5b61030881610ddb565b33600090815260016020526040812080546001600160c81b031916815560020155565b3360008181526001602052604090205460ff1615610417575061053c565b6001600160a01b038116600090815260016020526040902054610100900467ffffffffffffffff16801580159061044e5750428111155b15610539576001600160a01b038083166000908152600160208181526040808420948a16845293909101905220548114156104c6576001600160a01b0382166000908152600160205260409020600201546104a99084610e80565b6001600160a01b0383166000908152600160205260409020600201555b6001600160a01b03808316600090815260016020818152604080842094891684529390910190522054811415610539576001600160a01b03821660009081526001602052604090206002015461051c9084610ee2565b6001600160a01b0383166000908152600160205260409020600201555b50505b505050565b60035481565b6001600160a01b038116600090815260016020526040902054610100900467ffffffffffffffff164281116105ad5760405162461bcd60e51b815260040180806020018281038252602681526020018061119f6026913960400191505060405180910390fd5b600080836001600160a01b031663b2c09233336040518263ffffffff1660e01b815260040180826001600160a01b03168152602001915050604080518083038186803b1580156105fc57600080fd5b505afa158015610610573d6000803e3d6000fd5b505050506040513d604081101561062657600080fd5b5080516020909101519092509050816106705760405162461bcd60e51b81526004018080602001828103825260338152602001806112546033913960400191505060405180910390fd5b6003546001600160a01b0385166000908152600160208181526040808420338552909201905290205467ffffffffffffffff85168114156106e25760405162461bcd60e51b815260040180806020018281038252602e8152602001806111fe602e913960400191505060405180910390fd5b506001600160a01b03851660009081526001602052604090206002015467ffffffffffffffff8516906107158186610ee2565b6001600160a01b03881660009081526001602081815260408084203380865293018252928390208690558251848152908101869052825193945090927f0a8ea94a61adb9b6f01366abaa0ed52716931571afd18109d2ed9f18c522f0b5929181900390910190a26001600160a01b03871660009081526001602052604090206002018190556107bb6c0c9f2c9cd04674edea400000006107b58686610f43565b90610f9c565b81106107ca576107ca87611003565b50505050505050565b80336001600160a01b0316816001600160a01b0316637df1f1b96040518163ffffffff1660e01b8152600401602060405180830381600087803b15801561081957600080fd5b505af115801561082d573d6000803e3d6000fd5b505050506040513d602081101561084357600080fd5b50516001600160a01b03161461088f576040805162461bcd60e51b815260206004820152600c60248201526b2737ba102137b93937bbb2b960a11b604482015290519081900360640190fd5b6001600160a01b038216600090815260016020526040902054600160481b90046001600160801b0316806108f45760405162461bcd60e51b815260040180806020018281038252603081526020018061116f6030913960400191505060405180910390fd5b6001600160a01b038316600090815260016020526040902054610100900467ffffffffffffffff1642811061095a5760405162461bcd60e51b81526004018080602001828103825260398152602001806111c56039913960400191505060405180910390fd5b6001600160a01b03841660009081526001602052604090205460ff16156109b25760405162461bcd60e51b815260040180806020018281038252603681526020018061130e6036913960400191505060405180910390fd5b6001600160a01b038085166000908152600160209081526040808320600290810184905554815163171e108560e01b815291519394169263171e108592600480840193919291829003018186803b158015610a0c57600080fd5b505afa158015610a20573d6000803e3d6000fd5b505050506040513d6020811015610a3657600080fd5b50516040805163bf3b8e4b60e01b81526001600160a01b03888116600483015291519293506000929184169163bf3b8e4b91602480820192602092909190829003018186803b158015610a8857600080fd5b505afa158015610a9c573d6000803e3d6000fd5b505050506040513d6020811015610ab257600080fd5b50519050610acd816c0c9f2c9cd04674edea40000000610f9c565b6001600160a01b038716600090815260016020908152604091829020805468ffffffffffffffff00191661010067ffffffffffffffff861690810291909117909155825190815291519295507fd1227b96f2a4760a4dbde6777d1cd5a4f68c7d46a202a290c9a91946290b5e0e92918290030190a1505050505050565b6001602052600090815260409020805460029091015460ff821691610100810467ffffffffffffffff1691600160481b9091046001600160801b03169084565b600054610100900460ff1680610ba35750610ba3611157565b80610bb1575060005460ff16155b610bec5760405162461bcd60e51b815260040180806020018281038252602e815260200180611287602e913960400191505060405180910390fd5b600054610100900460ff16158015610c17576000805460ff1961ff0019909116610100171660011790555b610c2083610ddb565b610c2982610da0565b801561053c576000805461ff0019169055505050565b600254336000908152600160205260409020546001600160a01b0390911690600160481b90046001600160801b031615610caa5760405162461bcd60e51b81526004018080602001828103825260388152602001806112d66038913960400191505060405180910390fd5b6040805163edf7ae2160e01b815233600482015290516001600160a01b0383169163edf7ae21916024808301926020929190829003018186803b158015610cf057600080fd5b505afa158015610d04573d6000803e3d6000fd5b505050506040513d6020811015610d1a57600080fd5b5051610d575760405162461bcd60e51b815260040180806020018281038252602881526020018061122c6028913960400191505060405180910390fd5b5033600090815260016020526040902080546001600160801b03909216600160481b0278ffffffffffffffffffffffffffffffff00000000000000000019909216919091179055565b60038190556040805182815290517f80e7cab94b51becc6b80510fb0ceac2a7ee03afd9670427b2cac6a2ff739a8d79181900360200190a150565b6001600160a01b038116610e36576040805162461bcd60e51b815260206004820152601860248201527f5a65726f2061646472657373206e6f7420616c6c6f7765640000000000000000604482015290519081900360640190fd5b600280546001600160a01b0319166001600160a01b0383169081179091556040517f1c7678eaee5fa898fb56c2cae0f73cba66bd4eee97d2df577030caea131dd9a590600090a250565b600082821115610ed7576040805162461bcd60e51b815260206004820152601e60248201527f536166654d6174683a207375627472616374696f6e206f766572666c6f770000604482015290519081900360640190fd5b508082035b92915050565b600082820183811015610f3c576040805162461bcd60e51b815260206004820152601b60248201527f536166654d6174683a206164646974696f6e206f766572666c6f770000000000604482015290519081900360640190fd5b9392505050565b600082610f5257506000610edc565b82820282848281610f5f57fe5b0414610f3c5760405162461bcd60e51b81526004018080602001828103825260218152602001806112b56021913960400191505060405180910390fd5b6000808211610ff2576040805162461bcd60e51b815260206004820152601a60248201527f536166654d6174683a206469766973696f6e206279207a65726f000000000000604482015290519081900360640190fd5b818381610ffb57fe5b049392505050565b6002546040805163171e108560e01b815290516001600160a01b0390921691600091839163171e108591600480820192602092909190829003018186803b15801561104d57600080fd5b505afa158015611061573d6000803e3d6000fd5b505050506040513d602081101561107757600080fd5b50516001600160a01b038481166000818152600160208190526040808320805460ff191690921768ffffffffffffffff0019166101004267ffffffffffffffff1602179091558051634e65cfd960e11b815260048101939093525193945091841692639ccb9fb29260248084019391929182900301818387803b1580156110fd57600080fd5b505af1158015611111573d6000803e3d6000fd5b5050604080516001600160a01b038716815290517fa4f302c9f8b4a9851753ecc51e676bd12aeafb73a0748731e421b3023e21219c9350908190036020019150a1505050565b600061116230611168565b15905090565b3b15159056fe457874656e73696f6e3a3a72657175657374457874656e73696f6e202d20556e696e697469616c697a656420706f6f6c506f6f6c3a3a766f74654f6e457874656e73696f6e202d20566f74696e67206973206f766572457874656e73696f6e3a3a72657175657374457874656e73696f6e202d20457874656e73696f6e2072657175657374656420616c7265616479506f6f6c3a3a766f74654f6e457874656e73696f6e202d20796f75206861766520616c726561647920766f74656452657061796d656e74733a3a6f6e6c7956616c6964506f6f6c202d20496e76616c696420506f6f6c506f6f6c3a3a766f74654f6e457874656e73696f6e202d204e6f7420612076616c6964206c656e64657220666f7220706f6f6c496e697469616c697a61626c653a20636f6e747261637420697320616c726561647920696e697469616c697a6564536166654d6174683a206d756c7469706c69636174696f6e206f766572666c6f77457874656e73696f6e3a3a696e697469616c697a65506f6f6c457874656e73696f6e202d20616c726561647920696e697469616c697a6564457874656e73696f6e3a3a72657175657374457874656e73696f6e3a20457874656e73696f6e20616c726561647920617661696c6564a2646970667358221220d59e074e685e5b57ff5b381fd90ad13a289964dd525ac43128a5bb89a5b45d1864736f6c63430007000033",
  "linkReferences": {},
  "deployedLinkReferences": {}
}