{
  "_format": "hh-sol-artifact-1",
  "contractName": "YearnYield",
  "sourceName": "contracts/yield/YearnYield.sol",
  "abi": [
    {
      "anonymous": false,
      "inputs": [
        {
          "indexed": true,
          "internalType": "address",
          "name": "user",
          "type": "address"
        },
        {
          "indexed": true,
          "internalType": "address",
          "name": "investedTo",
          "type": "address"
        },
        {
          "indexed": false,
          "internalType": "uint256",
          "name": "lpTokensReceived",
          "type": "uint256"
        }
      ],
      "name": "LockedTokens",
      "type": "event"
    },
    {
      "anonymous": false,
      "inputs": [
        {
          "indexed": true,
          "internalType": "address",
          "name": "previousOwner",
          "type": "address"
        },
        {
          "indexed": true,
          "internalType": "address",
          "name": "newOwner",
          "type": "address"
        }
      ],
      "name": "OwnershipTransferred",
      "type": "event"
    },
    {
      "anonymous": false,
      "inputs": [
        {
          "indexed": true,
          "internalType": "address",
          "name": "asset",
          "type": "address"
        },
        {
          "indexed": true,
          "internalType": "address",
          "name": "protocolToken",
          "type": "address"
        }
      ],
      "name": "ProtocolAddressesUpdated",
      "type": "event"
    },
    {
      "anonymous": false,
      "inputs": [
        {
          "indexed": true,
          "internalType": "address",
          "name": "savingsAccount",
          "type": "address"
        }
      ],
      "name": "SavingsAccountUpdated",
      "type": "event"
    },
    {
      "anonymous": false,
      "inputs": [
        {
          "indexed": true,
          "internalType": "address",
          "name": "asset",
          "type": "address"
        },
        {
          "indexed": false,
          "internalType": "uint256",
          "name": "sharesReleased",
          "type": "uint256"
        }
      ],
      "name": "UnlockedShares",
      "type": "event"
    },
    {
      "anonymous": false,
      "inputs": [
        {
          "indexed": true,
          "internalType": "address",
          "name": "investedTo",
          "type": "address"
        },
        {
          "indexed": false,
          "internalType": "uint256",
          "name": "collateralReceived",
          "type": "uint256"
        }
      ],
      "name": "UnlockedTokens",
      "type": "event"
    },
    {
      "inputs": [
        {
          "internalType": "address",
          "name": "_asset",
          "type": "address"
        },
        {
          "internalType": "address payable",
          "name": "_wallet",
          "type": "address"
        }
      ],
      "name": "emergencyWithdraw",
      "outputs": [
        {
          "internalType": "uint256",
          "name": "received",
          "type": "uint256"
        }
      ],
      "stateMutability": "nonpayable",
      "type": "function"
    },
    {
      "inputs": [
        {
          "internalType": "uint256",
          "name": "amount",
          "type": "uint256"
        },
        {
          "internalType": "address",
          "name": "asset",
          "type": "address"
        }
      ],
      "name": "getSharesForTokens",
      "outputs": [
        {
          "internalType": "uint256",
          "name": "shares",
          "type": "uint256"
        }
      ],
      "stateMutability": "view",
      "type": "function"
    },
    {
      "inputs": [
        {
          "internalType": "uint256",
          "name": "shares",
          "type": "uint256"
        },
        {
          "internalType": "address",
          "name": "asset",
          "type": "address"
        }
      ],
      "name": "getTokensForShares",
      "outputs": [
        {
          "internalType": "uint256",
          "name": "amount",
          "type": "uint256"
        }
      ],
      "stateMutability": "view",
      "type": "function"
    },
    {
      "inputs": [
        {
          "internalType": "address",
          "name": "_owner",
          "type": "address"
        },
        {
          "internalType": "address payable",
          "name": "_savingsAccount",
          "type": "address"
        }
      ],
      "name": "initialize",
      "outputs": [],
      "stateMutability": "nonpayable",
      "type": "function"
    },
    {
      "inputs": [
        {
          "internalType": "address",
          "name": "",
          "type": "address"
        }
      ],
      "name": "liquidityToken",
      "outputs": [
        {
          "internalType": "address",
          "name": "",
          "type": "address"
        }
      ],
      "stateMutability": "view",
      "type": "function"
    },
    {
      "inputs": [
        {
          "internalType": "address",
          "name": "user",
          "type": "address"
        },
        {
          "internalType": "address",
          "name": "asset",
          "type": "address"
        },
        {
          "internalType": "uint256",
          "name": "amount",
          "type": "uint256"
        }
      ],
      "name": "lockTokens",
      "outputs": [
        {
          "internalType": "uint256",
          "name": "sharesReceived",
          "type": "uint256"
        }
      ],
      "stateMutability": "payable",
      "type": "function"
    },
    {
      "inputs": [],
      "name": "owner",
      "outputs": [
        {
          "internalType": "address",
          "name": "",
          "type": "address"
        }
      ],
      "stateMutability": "view",
      "type": "function"
    },
    {
      "inputs": [],
      "name": "renounceOwnership",
      "outputs": [],
      "stateMutability": "nonpayable",
      "type": "function"
    },
    {
      "inputs": [],
      "name": "savingsAccount",
      "outputs": [
        {
          "internalType": "address payable",
          "name": "",
          "type": "address"
        }
      ],
      "stateMutability": "view",
      "type": "function"
    },
    {
      "inputs": [
        {
          "internalType": "address",
          "name": "newOwner",
          "type": "address"
        }
      ],
      "name": "transferOwnership",
      "outputs": [],
      "stateMutability": "nonpayable",
      "type": "function"
    },
    {
      "inputs": [
        {
          "internalType": "address",
          "name": "asset",
          "type": "address"
        },
        {
          "internalType": "uint256",
          "name": "amount",
          "type": "uint256"
        }
      ],
      "name": "unlockShares",
      "outputs": [
        {
          "internalType": "uint256",
          "name": "",
          "type": "uint256"
        }
      ],
      "stateMutability": "nonpayable",
      "type": "function"
    },
    {
      "inputs": [
        {
          "internalType": "address",
          "name": "asset",
          "type": "address"
        },
        {
          "internalType": "uint256",
          "name": "amount",
          "type": "uint256"
        }
      ],
      "name": "unlockTokens",
      "outputs": [
        {
          "internalType": "uint256",
          "name": "received",
          "type": "uint256"
        }
      ],
      "stateMutability": "nonpayable",
      "type": "function"
    },
    {
      "inputs": [
        {
          "internalType": "address",
          "name": "_asset",
          "type": "address"
        },
        {
          "internalType": "address",
          "name": "_liquidityToken",
          "type": "address"
        }
      ],
      "name": "updateProtocolAddresses",
      "outputs": [],
      "stateMutability": "nonpayable",
      "type": "function"
    },
    {
      "inputs": [
        {
          "internalType": "address payable",
          "name": "_savingsAccount",
          "type": "address"
        }
      ],
      "name": "updateSavingsAccount",
      "outputs": [],
      "stateMutability": "nonpayable",
      "type": "function"
    },
    {
      "stateMutability": "payable",
      "type": "receive"
    }
  ],
  "bytecode": "0x608060405234801561001057600080fd5b506001606555611e3c806100256000396000f3fe6080604052600436106100e15760003560e01c8063715018a61161007f578063934a525211610059578063934a5252146103065780639d564d9a1461033f578063ecced62314610378578063f2fde38b1461038d576100e8565b8063715018a6146102a357806376467da0146102b85780638da5cb5b146102f1576100e8565b8063485cc955116100bb578063485cc955146101c157806359846d29146101fc5780636382d9ad146102355780636cf14f9d14610270576100e8565b8063050470f1146100ed5780631391abc71461012a5780634767ceee14610179576100e8565b366100e857005b600080fd5b3480156100f957600080fd5b506101286004803603604081101561011057600080fd5b506001600160a01b03813581169160200135166103c0565b005b34801561013657600080fd5b5061015d6004803603602081101561014d57600080fd5b50356001600160a01b0316610479565b604080516001600160a01b039092168252519081900360200190f35b6101af6004803603606081101561018f57600080fd5b506001600160a01b03813581169160208101359091169060400135610494565b60408051918252519081900360200190f35b3480156101cd57600080fd5b50610128600480360360408110156101e457600080fd5b506001600160a01b0381358116916020013516610675565b34801561020857600080fd5b506101af6004803603604081101561021f57600080fd5b50803590602001356001600160a01b0316610733565b34801561024157600080fd5b506101af6004803603604081101561025857600080fd5b506001600160a01b0381358116916020013516610804565b34801561027c57600080fd5b506101286004803603602081101561029357600080fd5b50356001600160a01b0316610a66565b3480156102af57600080fd5b50610128610ad4565b3480156102c457600080fd5b506101af600480360360408110156102db57600080fd5b506001600160a01b038135169060200135610b80565b3480156102fd57600080fd5b5061015d610ce0565b34801561031257600080fd5b506101af6004803603604081101561032957600080fd5b50803590602001356001600160a01b0316610cef565b34801561034b57600080fd5b506101af6004803603604081101561036257600080fd5b506001600160a01b038135169060200135610d18565b34801561038457600080fd5b5061015d610f46565b34801561039957600080fd5b50610128600480360360208110156103b057600080fd5b50356001600160a01b0316610f55565b6103c8611058565b6001600160a01b03166103d9610ce0565b6001600160a01b031614610422576040805162461bcd60e51b81526020600482018190526024820152600080516020611dbd833981519152604482015290519081900360640190fd5b6001600160a01b0382811660008181526067602052604080822080546001600160a01b0319169486169485179055517f56f1579ee95049fdf09d13a9dff4ee7dceb865ba851790c867e5e43938ccdcaa9190a35050565b6067602052600090815260409020546001600160a01b031681565b6066546000906001600160a01b03166104ab611058565b6001600160a01b0316146104f05760405162461bcd60e51b8152600401808060200182810382526027815260200180611d216027913960400191505060405180910390fd5b60026065541415610536576040805162461bcd60e51b815260206004820152601f6024820152600080516020611cb9833981519152604482015290519081900360640190fd5b60026065558161057e576040805162461bcd60e51b815260206004820152600e60248201526d125b9d995cdd0e88185b5bdd5b9d60921b604482015290519081900360640190fd5b6001600160a01b03808416600081815260676020526040902054909116906105fa578234146105e9576040805162461bcd60e51b8152602060048201526012602482015271125b9d995cdd0e8811551208185b5bdd5b9d60721b604482015290519081900360640190fd5b6105f3818461105c565b915061061d565b61060f6001600160a01b0385168630866111c2565b61061a848285611222565b91505b806001600160a01b0316856001600160a01b03167f71538b5e30c18b86003771476b5887a8f118d796b2a4a2a5960e0ac1b10962d3846040518082815260200191505060405180910390a35060016065559392505050565b600054610100900460ff168061068e575061068e6113da565b8061069c575060005460ff16155b6106d75760405162461bcd60e51b815260040180806020018281038252602e815260200180611d6e602e913960400191505060405180910390fd5b600054610100900460ff16158015610702576000805460ff1961ff0019909116610100171660011790555b61070a6113eb565b61071383610f55565b61071c8261149c565b801561072e576000805461ff00191690555b505050565b600082610742575060006107fe565b6107fb670de0b6b3a76400006107f58560676000876001600160a01b03166001600160a01b0316815260200190815260200160002060009054906101000a90046001600160a01b03166001600160a01b03166377c7b8fc6040518163ffffffff1660e01b815260040160206040518083038186803b1580156107c357600080fd5b505afa1580156107d7573d6000803e3d6000fd5b505050506040513d60208110156107ed57600080fd5b505190611538565b90611591565b90505b92915050565b600061080e611058565b6001600160a01b031661081f610ce0565b6001600160a01b031614610868576040805162461bcd60e51b81526020600482018190526024820152600080516020611dbd833981519152604482015290519081900360640190fd5b600260655414156108ae576040805162461bcd60e51b815260206004820152601f6024820152600080516020611cb9833981519152604482015290519081900360640190fd5b60026065556001600160a01b0382166108fa576040805162461bcd60e51b815260206004820152600960248201526831b0b73a10313ab93760b91b604482015290519081900360640190fd5b6001600160a01b0380841660009081526067602090815260408083205481516370a0823160e01b8152306004820152915194169384926370a082319260248082019391829003018186803b15801561095157600080fd5b505afa158015610965573d6000803e3d6000fd5b505050506040513d602081101561097b57600080fd5b505190506001600160a01b038516610a385761099782826115f8565b6040519093506000906001600160a01b0386169085908381818185875af1925050503d80600081146109e5576040519150601f19603f3d011682016040523d82523d6000602084013e6109ea565b606091505b5050905080610a32576040805162461bcd60e51b815260206004820152600f60248201526e151c985b9cd9995c8819985a5b1959608a1b604482015290519081900360640190fd5b50610a59565b610a4385838361166f565b9250610a596001600160a01b03861685856117a0565b5050600160655592915050565b610a6e611058565b6001600160a01b0316610a7f610ce0565b6001600160a01b031614610ac8576040805162461bcd60e51b81526020600482018190526024820152600080516020611dbd833981519152604482015290519081900360640190fd5b610ad18161149c565b50565b610adc611058565b6001600160a01b0316610aed610ce0565b6001600160a01b031614610b36576040805162461bcd60e51b81526020600482018190526024820152600080516020611dbd833981519152604482015290519081900360640190fd5b6033546040516000916001600160a01b0316907f8be0079c531659141344cd1fd0a4f28419497f9722a3daafe3b4186f6b6457e0908390a3603380546001600160a01b0319169055565b6066546000906001600160a01b0316610b97611058565b6001600160a01b031614610bdc5760405162461bcd60e51b8152600401808060200182810382526027815260200180611d216027913960400191505060405180910390fd5b60026065541415610c22576040805162461bcd60e51b815260206004820152601f6024820152600080516020611cb9833981519152604482015290519081900360640190fd5b600260655581610c3457506000610cd5565b6001600160a01b038316610c795760405162461bcd60e51b8152600401808060200182810382526022815260200180611cff6022913960400191505060405180910390fd5b606654610c93906001600160a01b038581169116846117a0565b6040805183815290516001600160a01b038516917f176b3c3d1f486b4519305078c763e6ca126c940ea1a8a024bdb0316c08ad6ede919081900360200190a250805b600160655592915050565b6033546001600160a01b031690565b60006107fb610d06670de0b6b3a764000084610733565b6107f585670de0b6b3a7640000611538565b6066546000906001600160a01b0316610d2f611058565b6001600160a01b031614610d745760405162461bcd60e51b8152600401808060200182810382526027815260200180611d216027913960400191505060405180910390fd5b60026065541415610dba576040805162461bcd60e51b815260206004820152601f6024820152600080516020611cb9833981519152604482015290519081900360640190fd5b600260655581610e02576040805162461bcd60e51b815260206004820152600e60248201526d125b9d995cdd0e88185b5bdd5b9d60921b604482015290519081900360640190fd5b6001600160a01b0380841660008181526067602052604090205490911690610ed357610e2e81846115f8565b6066546040519193506000916001600160a01b039091169084908381818185875af1925050503d8060008114610e80576040519150601f19603f3d011682016040523d82523d6000602084013e610e85565b606091505b5050905080610ecd576040805162461bcd60e51b815260206004820152600f60248201526e151c985b9cd9995c8819985a5b1959608a1b604482015290519081900360640190fd5b50610efb565b610ede84828561166f565b606654909250610efb906001600160a01b038681169116846117a0565b6040805183815290516001600160a01b038616917faf08a4db36432bb5cbbfdfcf5af1040246483dc0dae8a9616cc79816c432fee9919081900360200190a250600160655592915050565b6066546001600160a01b031681565b610f5d611058565b6001600160a01b0316610f6e610ce0565b6001600160a01b031614610fb7576040805162461bcd60e51b81526020600482018190526024820152600080516020611dbd833981519152604482015290519081900360640190fd5b6001600160a01b038116610ffc5760405162461bcd60e51b8152600401808060200182810382526026815260200180611cd96026913960400191505060405180910390fd5b6033546040516001600160a01b038084169216907f8be0079c531659141344cd1fd0a4f28419497f9722a3daafe3b4186f6b6457e090600090a3603380546001600160a01b0319166001600160a01b0392909216919091179055565b3390565b600080836001600160a01b03166370a08231306040518263ffffffff1660e01b815260040180826001600160a01b0316815260200191505060206040518083038186803b1580156110ac57600080fd5b505afa1580156110c0573d6000803e3d6000fd5b505050506040513d60208110156110d657600080fd5b50516040805163f6326fb360e01b815290519192506001600160a01b0386169163f6326fb3918691600480830192600092919082900301818588803b15801561111e57600080fd5b505af1158015611132573d6000803e3d6000fd5b50505050506111ba81856001600160a01b03166370a08231306040518263ffffffff1660e01b815260040180826001600160a01b0316815260200191505060206040518083038186803b15801561118857600080fd5b505afa15801561119c573d6000803e3d6000fd5b505050506040513d60208110156111b257600080fd5b5051906117f2565b949350505050565b604080516001600160a01b0380861660248301528416604482015260648082018490528251808303909101815260849091019091526020810180516001600160e01b03166323b872dd60e01b17905261121c90859061184f565b50505050565b600080836001600160a01b03166370a08231306040518263ffffffff1660e01b815260040180826001600160a01b0316815260200191505060206040518083038186803b15801561127257600080fd5b505afa158015611286573d6000803e3d6000fd5b505050506040513d602081101561129c57600080fd5b50516040805163095ea7b360e01b81526001600160a01b0387811660048301526024820187905291519293509087169163095ea7b3916044808201926020929091908290030181600087803b1580156112f457600080fd5b505af1158015611308573d6000803e3d6000fd5b505050506040513d602081101561131e57600080fd5b50506040805163b6b55f2560e01b81526004810185905290516001600160a01b0386169163b6b55f2591602480830192600092919082900301818387803b15801561136857600080fd5b505af115801561137c573d6000803e3d6000fd5b505050506113d181856001600160a01b03166370a08231306040518263ffffffff1660e01b815260040180826001600160a01b0316815260200191505060206040518083038186803b15801561118857600080fd5b95945050505050565b60006113e530611900565b15905090565b600054610100900460ff168061140457506114046113da565b80611412575060005460ff16155b61144d5760405162461bcd60e51b815260040180806020018281038252602e815260200180611d6e602e913960400191505060405180910390fd5b600054610100900460ff16158015611478576000805460ff1961ff0019909116610100171660011790555b611480611906565b6114886119a6565b8015610ad1576000805461ff001916905550565b6001600160a01b0381166114ee576040805162461bcd60e51b8152602060048201526014602482015273496e766573743a207a65726f206164647265737360601b604482015290519081900360640190fd5b606680546001600160a01b0319166001600160a01b0383169081179091556040517f5e8a3d56d9512a62f643367551a65727148c2516dce6b54956df80926dd2536c90600090a250565b600082611547575060006107fe565b8282028284828161155457fe5b04146107fb5760405162461bcd60e51b8152600401808060200182810382526021815260200180611d9c6021913960400191505060405180910390fd5b60008082116115e7576040805162461bcd60e51b815260206004820152601a60248201527f536166654d6174683a206469766973696f6e206279207a65726f000000000000604482015290519081900360640190fd5b8183816115f057fe5b049392505050565b600080479050836001600160a01b031663f14210a6846040518263ffffffff1660e01b815260040180828152602001915050600060405180830381600087803b15801561164457600080fd5b505af1158015611658573d6000803e3d6000fd5b505050506111ba81476117f290919063ffffffff16565b600080846001600160a01b03166370a08231306040518263ffffffff1660e01b815260040180826001600160a01b0316815260200191505060206040518083038186803b1580156116bf57600080fd5b505afa1580156116d3573d6000803e3d6000fd5b505050506040513d60208110156116e957600080fd5b505160408051632e1a7d4d60e01b81526004810186905290519192506001600160a01b03861691632e1a7d4d9160248082019260009290919082900301818387803b15801561173757600080fd5b505af115801561174b573d6000803e3d6000fd5b505050506113d181866001600160a01b03166370a08231306040518263ffffffff1660e01b815260040180826001600160a01b0316815260200191505060206040518083038186803b15801561118857600080fd5b604080516001600160a01b038416602482015260448082018490528251808303909101815260649091019091526020810180516001600160e01b031663a9059cbb60e01b17905261072e90849061184f565b600082821115611849576040805162461bcd60e51b815260206004820152601e60248201527f536166654d6174683a207375627472616374696f6e206f766572666c6f770000604482015290519081900360640190fd5b50900390565b60606118a4826040518060400160405280602081526020017f5361666545524332303a206c6f772d6c6576656c2063616c6c206661696c6564815250856001600160a01b0316611a9f9092919063ffffffff16565b80519091501561072e578080602001905160208110156118c357600080fd5b505161072e5760405162461bcd60e51b815260040180806020018281038252602a815260200180611ddd602a913960400191505060405180910390fd5b3b151590565b600054610100900460ff168061191f575061191f6113da565b8061192d575060005460ff16155b6119685760405162461bcd60e51b815260040180806020018281038252602e815260200180611d6e602e913960400191505060405180910390fd5b600054610100900460ff16158015611488576000805460ff1961ff0019909116610100171660011790558015610ad1576000805461ff001916905550565b600054610100900460ff16806119bf57506119bf6113da565b806119cd575060005460ff16155b611a085760405162461bcd60e51b815260040180806020018281038252602e815260200180611d6e602e913960400191505060405180910390fd5b600054610100900460ff16158015611a33576000805460ff1961ff0019909116610100171660011790555b6000611a3d611058565b603380546001600160a01b0319166001600160a01b038316908117909155604051919250906000907f8be0079c531659141344cd1fd0a4f28419497f9722a3daafe3b4186f6b6457e0908290a3508015610ad1576000805461ff001916905550565b6060611aae8484600085611ab8565b90505b9392505050565b606082471015611af95760405162461bcd60e51b8152600401808060200182810382526026815260200180611d486026913960400191505060405180910390fd5b611b0285611900565b611b53576040805162461bcd60e51b815260206004820152601d60248201527f416464726573733a2063616c6c20746f206e6f6e2d636f6e7472616374000000604482015290519081900360640190fd5b60006060866001600160a01b031685876040518082805190602001908083835b60208310611b925780518252601f199092019160209182019101611b73565b6001836020036101000a03801982511681845116808217855250505050505090500191505060006040518083038185875af1925050503d8060008114611bf4576040519150601f19603f3d011682016040523d82523d6000602084013e611bf9565b606091505b5091509150611c09828286611c14565b979650505050505050565b60608315611c23575081611ab1565b825115611c335782518084602001fd5b8160405162461bcd60e51b81526004018080602001828103825283818151815260200191508051906020019080838360005b83811015611c7d578181015183820152602001611c65565b50505050905090810190601f168015611caa5780820380516001836020036101000a031916815260200191505b509250505060405180910390fdfe5265656e7472616e637947756172643a207265656e7472616e742063616c6c004f776e61626c653a206e6577206f776e657220697320746865207a65726f2061646472657373417373657420616464726573732063616e6e6f742062652061646472657373283029496e766573743a204f6e6c7920736176696e6773206163636f756e742063616e20696e766f6b65416464726573733a20696e73756666696369656e742062616c616e636520666f722063616c6c496e697469616c697a61626c653a20636f6e747261637420697320616c726561647920696e697469616c697a6564536166654d6174683a206d756c7469706c69636174696f6e206f766572666c6f774f776e61626c653a2063616c6c6572206973206e6f7420746865206f776e65725361666545524332303a204552433230206f7065726174696f6e20646964206e6f742073756363656564a26469706673582212206e042c793f3d377e0f58a87345116f85f939de61a177aff045174068643fa9f064736f6c63430007000033",
  "linkReferences": {},
  "deployedLinkReferences": {}
}